:020000040800F2
:10000000000003205D060008A5240008A7240008BE
:10001000A9240008AB240008AD240008000000005B
:10002000000000000000000000000000D181000876
:10003000AF2400080000000061820008917A0008E7
:10004000AD060008AD060008AD060008AD060008C4
:10005000AD060008AD060008AD060008AD060008B4
:10006000AD060008AD060008AD060008AD060008A4
:10007000AD060008AD060008AD060008AD06000894
:10008000AD060008AD060008AD060008AD06000884
:10009000AD060008AD060008AD060008AD06000874
:1000A000AD060008AD060008AD060008AD06000864
:1000B000AD060008AD060008AD060008AD06000854
:1000C000AD060008AD060008AD060008AD06000844
:1000D000AD060008AD060008AD060008AD06000834
:1000E000AD060008AD060008AD060008AD06000824
:1000F000AD060008AD060008AD060008AD06000814
:10010000AD060008AD060008AD060008AD06000803
:10011000AD060008AD060008B1240008AD060008D1
:10012000AD060008AD060008AD060008AD060008E3
:10013000AD060008AD060008AD060008AD060008D3
:10014000AD060008AD060008AD060008AD060008C3
:10015000AD060008AD060008AD060008AD060008B3
:10016000AD060008AD060008AD060008AD060008A3
:10017000AD060008AD060008AD060008000000004E
:10018000AD060008AD060008AD060008AD06000883
:10019000AD060008AD060008AD060008AD06000873
:0C01A000BD240008AD060008C9240008BA
:1001B00010B5054C237833B9044B13B10448AFF3A1
:1001C00000800123237010BD800300200000000088
:1001D000844E020808B5034B1BB103490348AFF333
:1001E000008008BD0000000084030020844E020847
:1001F00001F0FF01102A2BDB10F0070F08D010F8D8
:10020000013B013A8B422DD010F0070F42B3F6D1DB
:10021000F0B441EA012141EA014122F007047FF0F4
:1002200000070023F0E80256083C85EA010586EA4B
:10023000010685FA47F5A3FA87F586FA47F6A5FA87
:1002400087F68EB9EED1F0BC01F0FF0102F0070293
:1002500032B110F8013B013A83EA010313B1F8D13E
:100260000020704701387047002D06BF354603381F
:10027000073815F0010F07D1013015F4807F02BF58
:10028000013015F4C03F0130F0BC0138704700BFA9
:100290007BB972B90029BEBF00204FF0004106E0D3
:1002A00008BF00281CBF6FF000414FF0FF3000F086
:1002B000D3B9ADF1080C6DE904CE002909DB002BA0
:1002C0001ADB00F04DF8DDF804E0DDE9022304B0AC
:1002D0007047404261EB4101002B1BDB00F040F80E
:1002E000DDF804E0DDE9022304B0404261EB4101A6
:1002F000524263EB43037047524263EB430300F007
:100300002FF8DDF804E0DDE9022304B0404261EBA0
:1003100041017047524263EB430300F021F8DDF8DE
:1003200004E0DDE9022304B0524263EB430370476B
:1003300053B94AB9002908BF00281CBF4FF0FF314C
:100340004FF0FF3000F088B9ADF1080C6DE904CE34
:1003500000F006F8DDF804E0DDE9022304B07047A0
:100360002DE9F047089D8E4604468846002B4AD169
:100370008A42174662D9B2FA82F64EB1C6F120031C
:1003800001FA06F820FA03F3B74043EA0808B4403C
:100390004FEA174E1FFA87FCB8FBFEF1230C0EFB49
:1003A000118843EA084301FB0CF29A4209D9FB1871
:1003B00001F1FF3080F0EA809A4240F2E780023992
:1003C0003B449A1AA3B2B2FBFEF00EFB102243EAA2
:1003D000024300FB0CFC9C4509D9FB1800F1FF32DD
:1003E00080F0D6809C4540F2D3803B44023840EAFE
:1003F0000140A3EB0C0300211DB1F3400022C5E92D
:100400000032BDE8F0878B4205D90DB1C5E9000186
:1004100000210846F5E7B3FA83F1002946D1734578
:1004200002D3824200F20581841A6EEB030201209E
:100430009046002DE5D0C5E90048E2E7002A00F02B
:100440009080B2FA82F6002E40F0A4808A1A030C43
:100450004FEA174E80B2BCB20121B2FBFEFC0EFB8C
:100460001C2243EA024304FB0CF29A4207D9FB1810
:100470000CF1FF3802D29A4200F2E080C4469B1A87
:10048000B3FBFEF20EFB123340EA034302FB04F41B
:100490009C4207D9FB1802F1FF3002D29C4200F2C5
:1004A000CA8002461B1B42EA0C40A5E7C1F12006A8
:1004B0008B4022FA06F71F430EFA01F420FA06F3E6
:1004C0002EFA06FE4FEA1749234300FA01F81FFAF5
:1004D00087FCBEFBF9F01C0C09FB10EE44EA0E444D
:1004E00000FB0CFEA64502FA01F209D93C1900F105
:1004F000FF3A80F09C80A64540F2998002383C4447
:10050000A4EB0E041FFA83FEB4FBF9F309FB1344BA
:100510004EEA044403FB0CFCA44508D93C1903F142
:10052000FF3E80F08280A4457FD9023B3C4443EAF1
:100530000040A4EB0C04A0FB02EC64457346E146CA
:1005400062D35FD05DB1B8EB030264EB090404FA37
:1005500006F622FA01F31E43CC40C5E900640021EF
:100560004FE7B1FBF2FC010C41EA0E4180B240EAD8
:1005700001423B4638463C46B846BE462026B1FBC3
:10058000F7F1A2EB080241EA0C4166E7014618E7E1
:1005900010462CE7C6F120022EFA02F3B740B14014
:1005A00020FA02F24FEA174E0A43B3FBFEF8BCB240
:1005B0000EFB1833110C41EA034108FB04F9B0406B
:1005C00089454FEA104380B23ED9791808F1FF3CC3
:1005D00001D289451FD8A1EB0901B1FBFEF909FB46
:1005E00004F80EFB191192B242EA0142424529D2A7
:1005F000BA1809F1FF31C4D24245C2D2A9F10201B1
:100600003A44BEE7F0459DD2BEEB02036CEB070C0B
:100610000138E14696E7A7EB09094944A8F1020C25
:10062000B1FBFEF909FB04F8DBE773467FE75046B0
:1006300066E70846FDE63B44023A33E7ACF1020CBC
:100640003B441CE749469CE7A1EB0901C446B1FBCA
:10065000FEF909FB04F8C4E7704700BFDFF834D0A7
:10066000002103E00C4B5B58435004310B480C4B0A
:1006700042189A42F6D30B4A02E0002342F8043BA8
:10068000094B9A42F9D304F02BFD23F08DFE01F0C3
:10069000A7F8704700000320C01C080800000020D5
:1006A0007401002080030020DC430120FEE7704736
:1006B00008B500F0B9FDBDE8084000F03DBD00F010
:1006C000B5BD704710B50421044622F06FFC2046EA
:1006D00010BD000038B50C4B0C4C18800C4B822020
:1006E00019806368984740F6110398420AD1094D72
:1006F00023682C60822098472B688220DB6898470B
:10070000002038BD0120FCE7A60300205C0000208B
:10071000A4030020A80300204FF4A071F020FFF7ED
:10072000D9BF0000F7B5394D2B6804461B698220FC
:100730009847208000284ED02B680DF106025B6997
:1007400001A982209847324B1B78002B4BD0BDF873
:10075000062040F674639A423FD9ADF80630BDF8E2
:1007600006209B1A9BB20A2B42D90B22B3FBF2F351
:10077000284A1288934201D9013A93B2BDF8042065
:10078000254840F6B8318A4234D8C2F571620E323B
:10079000016892B20F25B2FBF5F2204D2D88AA42D6
:1007A00084BF05F1FF35AAB28A4215468EB22AD916
:1007B000921B91B21A4E3768BB42BAB28CBF9A1ADA
:1007C000D21A92B211440529C4BF05603360036890
:1007D00063803368A38003B0F0BDB32A9CBFB4220A
:1007E000ADF80620BBE7BDF80630A3F5B473B9E752
:1007F0000023C3E7C2F56D62083292B20E2A016887
:10080000C8D800252A46891A89B2D3E7A803002050
:10081000C8200020A4030020A0030020A60300207D
:100820009C03002037B568460D461446FFF77AFF53
:10083000BDF8000030B1BDF802302B60BDF80430C7
:100840002360012003B030BD032821D8DFE800F089
:10085000020B12190F4B1A68B2FA82F252090421E4
:100860000D4805F003B90B4B5A68B2FA82F25209EF
:100870000821F5E7074B9A68B2FA82F25209102173
:10088000EEE7044BDA68B2FA82F252092021E7E778
:10089000704700BFAC03002000100240032821D89D
:1008A000DFE800F0020B12190F4B1A68003A18BF6C
:1008B000012204210D4805F0D9B80B4B5A68003AC3
:1008C00018BF01220821F5E7074B9A68003A18BFC4
:1008D00001221021EEE7044BDA68003A18BF01222A
:1008E0002021E7E7704700BFAC0300200010024062
:1008F00003280DD8DFE800F00206080A04210548A5
:1009000005F0B9B80821FAE71021F8E72021F6E749
:10091000704700BF0010024008B5032811D8DFE877
:1009200000F0020A0C0E0421074805F099F8431E56
:100930005842584108BD0821F6E71021F4E720216C
:10094000F2E70020F3E700BF0010024070B5084D49
:1009500000240126E0B2FFF7DFFF18B12B68012B5E
:1009600018BF2E600134052C05F10405F2D170BDCD
:10097000AC030020012380F8781080F879307047AC
:100980007047002070470000034B4164003918BFD6
:1009900001211970704700BF9B360120704700206D
:1009A0007047836B0BB10846184770474FF6FF70CE
:1009B0007047406803689B691847704770477047E5
:1009C0007047704710B5044600F046FD23680349A0
:1009D000D3F890302046BDE810401847000000D002
:1009E00008B503680446D3F8843098472368204646
:1009F000DB6F984700F0ECF8236820465B6F984760
:100A0000292001F007FA00F0E3F8236820465B6F25
:100A10009847F8E710B504460AF08AFA236820469A
:100A2000D3F8BC30BDE81040184700F0F9BC00F026
:100A3000FDBC00F02FBD00F0CFBC00F03FBD00F0CA
:100A400047BD00F0D3BC09F0A1BC10B58421044619
:100A500022F0ACFA204610BD10B590F8341090F892
:100A600078400C4B8C421A7809D03AB90A4A0B49A3
:100A70001488088810800C8001221A7010BD002A8A
:100A8000FCD0054A05491488088810800C80002293
:100A9000F3E700BF94360120903601209236012002
:100AA00070B50D46194635B9094B0A4A0A4840F255
:100AB000FF2123F0B7F9C0E90F52084B003A18BFE5
:100AC00001221A700368BDE87040D3F890301847CF
:100AD000F44E02082C4F02087A4F02089A36012081
:100AE00008B5094B1B888B4203D8084B1B889342DF
:100AF00005D9074B074A0848A32123F093F9074B70
:100B00001980074B1A8008BD9036012092360120CB
:100B1000BF4F0208225002087A4F02089636012081
:100B200098360120034690F87A0018B15868036897
:100B30001B68184770470000012108B500220846CD
:100B400007F048F80A4B186028B90A4B0A4A2821CE
:100B50000A4823F067F900220421012007F0E2F897
:100B6000074B186018B9074B034A2C21F0E708BD62
:100B7000C003002065500208AE500208DD50020894
:100B8000BC0300201F510208024B4FF0FF311868D0
:100B900007F06AB8C0030020014B186807F090B84E
:100BA000C0030020024B0021186807F05DB800BFA9
:100BB000C0030020FFF7F0BF03480449006800238A
:100BC0001A4607F0EAB800BFBC030020040000206A
:100BD00013B5084C00231A4601A9206807F00EF946
:100BE00020684FF0FF33002201A907F007F902B097
:100BF00010BD00BFBC03002003685B6C18470120D8
:100C0000704703689B6A1847FEE740F2EF30704771
:100C1000054B0360054B4FF08062C3F88820BFF39B
:100C20004F8FBFF36F8F7047845D020800E100E0D3
:100C300010B504464FF45A61FFF7EAFF204622F050
:100C4000B5F9204610BD000082B0002301930E4B81
:100C50001A6B42F400021A631A6B02F4000201924A
:100C6000019A1A6942F400021A611A6922F4000218
:100C70001A61064B064A1A61064A5A61064B4FF042
:100C800080629A6002B07047003802406C220020F7
:100C9000E90E0008090C000800E100E008B50A2888
:100CA00009D8DFE800F006100E0808080810101038
:100CB0001000022008BD054B054A0648902123F08C
:100CC000B1F80020F6E70120F4E700BF6151020807
:100CD0007C510208C751020838B50C46887FFFF7DF
:100CE000DDFFA58AE28A164B2169586342EA054274
:100CF0005A64628BD963521B1A642568082D0ED181
:100D00009A611A615862207F0E4A42EA0062DA61F3
:100D1000E2681A620C4A5961D9601A6038BD002233
:100D2000D8611A61E1680A0A480902F4784200F4BD
:100D3000FC600243C1F3C4010A439A63034AECE72F
:100D400000B002400900010001230200012303005A
:100D500008B50B280BD8DFE800F00612100A0A0AC3
:100D60000A0808080808022008BD0520FCE7054B12
:100D7000054A06486F2123F055F80020F4E70120CA
:100D8000F2E700BF6151020807520208C75102088A
:100D90002DE9F04191F81D800C464046FFF7D8FF41
:100DA000A77F05463846FFF7D3FF06463846FFF7CC
:100DB00075FFA18A628B444B521A1A649A61228B86
:100DC000521A1A61E28A586342EA01425A6421695E
:100DD0006268D963DA602068802828D0227F0FD823
:100DE000202867D0402865D004281AD0364B45EA21
:100DF000026545F40035B845DD6161D0334A44E011
:100E0000B0F5807F04D0B0F5007FEFD1304800E02E
:100E1000304840EA0262DA61E2681A625E62596151
:100E200032E045EA026242F40032DA61F6E7A06895
:100E3000021DDA62227F45EA026545F40035DD6174
:100E40005E625961017841B1012921D0224B234AC8
:100E500023484FF48D7122F0E5FFDA69418822F4CE
:100E60007F42013922F0100242EA0122DA610121B7
:100E7000154BDA6942F02002DA61DA699206FCD495
:100E800010229A600029B9D0164A1A60BDE8F08194
:100E9000B2F1FF01DA69408822F47F4200F1FF30AD
:100EA00022F0100242EA002242F0100218BF012193
:100EB000DA61DDE745EA0262034B42F40032B4E74F
:100EC00042F20132E1E700BF00B00240012301001D
:100ED000090002000A000200515202086B52020887
:100EE000C751020801230200024B1B6858680368BF
:100EF0005B6918479C36012070B5044625460A4BAD
:100F00000C30002660602672667245F8203B602235
:100F100029460AF063F904F55A63EE6024359D42D0
:100F2000FBD1204670BD00BF845D0208034B1A68E8
:100F3000D207FCD423229A60704700BF00B0024061
:100F40007047000030B50F4C2568ED07FCD4232511
:100F50000904A56041F001010225FF2B656361646E
:100F6000E0630AD00849656241EA0363E361074B25
:100F700022626061E060236030BDE561039BA36392
:100F8000034BF8E700B00240090001000100020035
:100F90000100030030B50E4C2568ED07FCD4232575
:100FA0001204A56042F001020225FF2B6563626412
:100FB000E063E16008D01B0643F00213E361054BD8
:100FC00065626061236030BD034BE3610123F9E793
:100FD00000B0024001000200020002FF30B50B4CDD
:100FE0002568ED07FCD4232512041B06A56043F4F5
:100FF0000033022542F0010265636264E063E16050
:10100000E361034B65626061236030BD00B0024064
:1010100001000200012070474020704700EB811062
:101020000830704700EB811008307047012070478E
:1010300040F67830704740F6783303FB0100083003
:10104000704740F6783303FB0100083070470120F9
:1010500070471020704700EB01100830704700EB1C
:10106000011008307047084601F098BC10B5034BDA
:101070000360044608F0E1FE204610BD3C5E020815
:1010800010B50446FFF7F2FF2046482121F08EFFFD
:10109000204610BD10B5034B0360044608F0CDFE9A
:1010A000204610BD085E020810B50446FFF7F2FFA7
:1010B00020464FF4386121F079FF204610BD000032
:1010C00010B5034B0360044608F0B7FE204610BD80
:1010D000D45D020810B50446FFF7F2FF2046182140
:1010E00021F064FF204610BD10B5084B0360044694
:1010F00000F6AC30FFF7BAFF04F12C00FFF7CAFF8F
:1011000004F11400FFF7DCFF204610BD705E0208FA
:1011100008B50248FFF7E8FF08BD00BF9C12002099
:1011200010B50446FFF7E0FF204640F6545121F089
:101130003DFF204610BD00002DE9F34101F038FAD3
:10114000054601F039FA0024014623462846224686
:10115000009412F079FE274B274A1A60204602F0CD
:101160006FFB264D264B274A27489A6012F0D4FD84
:101170002B68BFF35B8FDB0735D4284621F018FFBF
:1011800088B3224C224B236004F6F83604F1140095
:1011900004F12C0804F6AC376060C4F80880E760FE
:1011A000266108F04BFE1B4B6361404608F046FE8B
:1011B000194BE362384608F041FE184BC4F8AC3BCB
:1011C00004F6F43003F07CF8224604F6F43130469D
:1011D00002F0B0FB304601F0E1FB114822F040FE86
:1011E000284621F0F1FE0F4802B0BDE8F041FFF7BC
:1011F000E9BB00BF003701204804002098120020FE
:10120000680400204C040020080000209C120020EC
:10121000705E0208D45D0208085E02083C5E0208A7
:1012200011110008C4030020704700000148FFF7B7
:10123000D7BB00BFC403002070B5264E264C274DF7
:10124000274B23603046FFF757FE284617F002FF72
:10125000244810F0D7FA244B2448DC6000224FF4D5
:101260008071C3E9121222491A86C3E91A12214970
:1012700083F85820C3E91E011F49C3F880101F4995
:101280001F480B60F021C3E90422C3E90622C3E929
:101290000822C3E90A22C3E90E22C3E91022C3E9E6
:1012A0001422C3E917225A6683F870205A67C3E9EB
:1012B000016501801348018013484FF4A07101803B
:1012C0001248018012490A70012283F83420114A21
:1012D0001A6070BDF40400209412002068040020FD
:1012E000E44E02084C040020C40300200000010169
:1012F00001000001000450001A0014009C36012077
:101300009036012096360120923601209836012031
:1013100094360120985C02080148FFF779BC00BFB1
:10132000F40400200020704781807047C18070471E
:10133000018170474181704770477047704770471F
:10134000704710B4C4880368121B84885B6D091B46
:1013500012B25DF8044B09B218474FF6FF73838150
:101360004FF0FF3303621368C361106070470020C1
:1013700070478B88838001207047704780F8261063
:10138000704790F82600704710B50022B1F9084068
:10139000B1F90A10028042808480C18010BD002211
:1013A000028042808280C28070470177704780ED62
:1013B000080A704780F82410704780F8251070479D
:1013C00001207047983070478C30704784307047E8
:1013D0007047704770470000034B902283F85A23F0
:1013E00083F85823704700BF00E100E0094A0A492A
:1013F000D3680A48C3F30A03013B9BB20B8011690F
:10140000C1F30A01013901801364536B43F00103F6
:101410005363704700680140F21F0020F01F002056
:10142000014BD3F8AC00704700680140024B012229
:10143000C3F8AC105A6270470068014010B52C2107
:10144000044621F0B3FD204610BD10B5BC21044672
:1014500021F0ACFD204610BD70B5044608F0EBFF4E
:1014600023689D6E0EF01CFF01462046A8472368A6
:10147000054AD3F88C502046AC460023BDE87040A6
:10148000A2F51631604700BF00B004D008F0BABF23
:1014900008F0C4BF08F080BF09F0EFB890F825202D
:1014A00012B103685B691847704790F825201AB19C
:1014B00090F8242002B1186070470000034B4FF0F1
:1014C00080629A604FF080729A60704700E100E09D
:1014D000084B4FF08062C3F88820BFF34F8FBFF3F3
:1014E0006F8F4FF08072C3F88820BFF34F8FBFF328
:1014F0006F8F704700E100E070B50023124E8380CB
:10150000124B0360336893F8582005460AB1D86C33
:1015100000B998680368DB6A98473368B0FA80F4CA
:10152000D86C640930B10368DB6A9847002808BFAB
:1015300044F001042CB9064B064A07482C2122F03E
:1015400071FC284670BD00BF9C360120845E0208F5
:10155000A9520208075302084053020870B5254EED
:101560003568BFF35B8F15F0010540D1304621F09F
:101570001FFD00283BD0204C204B256104F1340096
:10158000C4E90035C4E90255E584A562A58510F0DB
:101590001EFC04F158000BF0D7FA194BA365204646
:1015A000184B40F8843BFFF7A7FF174BC4F8843073
:1015B0002433C4F88C304FF4C803C4E92835002321
:1015C000C4F8AC30C4F8B030C4F8B430C4F8B830A3
:1015D0000E480F4BC4F89050C4F89C50C4F8A85063
:1015E000C4F8983022F03CFC304621F0EDFC024873
:1015F00070BD00BFF41F0020F81F002034670208F0
:10160000A45E02081C5F0208E8660208D513000801
:10161000C866020838B5184C23685BB3174B184AE4
:101620001B6C11888B4216D1164B198805F008F8EF
:10163000236893F86A200025013283F86A2083F832
:101640007C50FFF7B9FA206809F072FC2846BDE823
:101650003840FFF7F9B804F0F3FF24682368204608
:101660001B6A9847012384F87C300020BDE838408D
:10167000FFF714B938BD00BF9C3601200068014057
:10168000F21F0020F01F002007B5064BADF8060042
:101690001B68054801220DF1060105F0BDFD03B0F0
:1016A0005DF804FB0C0000200821002038B5084C30
:1016B000204603F009FE0A21204603F09EFE204644
:1016C00003F0EEFE0546204603F07CFE284638BDBA
:1016D000FC22002038B5084C204603F0F5FD0A2115
:1016E000204603F08AFE204603F0DAFE0546204637
:1016F00003F068FE284638BDB422002070B50F4EB6
:101700000F4DFFF7D3FF0446FFF7E4FF21460246E3
:10171000304622F04BFDFFF7C9FF0446FFF7DAFF22
:1017200021460246284622F041FD4FF4FA7006F0A9
:1017300045FA642006F042FAE3E700BFA25302082C
:10174000BC53020830B595B0102200210AA822F03F
:1017500082FD1422002103A822F07DFD00241E4BEF
:1017600001941A6C42F080521A641B6C03F080538F
:101770000193019B194B02941A6842F440421A608B
:101780001B6803F4404302930122029B4FF4803311
:10179000CDE9082302254FF480030821CDE90E533B
:1017A0004FF4B473CDE9101308A8042313931295D2
:1017B00004F09EFF04F062FF0F23CDE903354FF4E0
:1017C000A0504FF48053CDE90603052103A80594EA
:1017D00005F06AF915B030BD0038024000700040D5
:1017E0002DE980489BB003F089FCFFF7ABFF142282
:1017F00000210DA822F02FFD0024C94B00941A6B84
:10180000C84842F010021A631A6B02F010020092EC
:10181000009A01941A6B42F020021A631A6B02F0CC
:1018200020020192019A02941A6B42F080021A631C
:101830001A6B02F080020292029A03941A6B42F031
:1018400004021A631A6B02F004020392039A0494CE
:101850001A6B42F001021A631A6B02F00102049241
:10186000049A05941A6B42F002021A631A6B02F092
:1018700002020592059A06941A6B42F040021A631E
:101880001A6B02F040020692069A07941A6B42F015
:1018900008021A631B6B03F00803224607933C21DE
:1018A000079B04F0E3F8A0480122022104F0DEF8CF
:1018B00022469D48042104F0D9F822469B484FF463
:1018C000405104F0D3F8224699484FF4005104F0F7
:1018D000CDF801263C23032592480F940DA9022739
:1018E000CDE90D36109503F0D7FF8F480DA9CDE94E
:1018F0000D764FF00408CDE90F4403F0CDFF8A4880
:101900000DA9CDE90D86CDE90F4703F0C5FF4FF4D2
:10191000405386480DA9CDE90D36CDE90F4703F0B8
:10192000BBFF82480F940DA9CDE90D8503F0B4FFEC
:101930004FF400537E480DA9CDE90D36CDE90F4493
:1019400003F0AAFF0DA906237A480F94CDE90D35BF
:1019500003F0A2FF7848794B794D036003F092FEC3
:10196000DFF8FCC1774B2C62C5E900C328464FF471
:101970008043C5E90434C5E90244C5E9064404F0DE
:1019800083FA1021284604F0C7FC2146284604F0BB
:10199000E2FC6D4DDFF8CCE1AC624FF48273C5E937
:1019A00000E34FF400781823C5E9068328460A238C
:1019B000C5E90244C5E90444C5E90844EB6205F001
:1019C000CFFB8F232246394657488DF824308DF8B7
:1019D000344004F04BF832464FF47A7309A9284694
:1019E00005F01AFC4FF47A7332460DA9284605F02B
:1019F000BFFD324639464C4804F038F89DF8343083
:101A0000D32B04BF514B1E70514E524B0125C6E9DA
:101A100000354FF0100940230024C6E904934FF429
:101A2000C073C6E906344FF40063C6E908344FF4C6
:101A300000534FF002084FF0040A4FF0030BB3625B
:101A40000DA9072330460827CDE90FA3CDE90D8363
:101A5000C6E9024ACDE911B8CDF84C8005F064FA28
:101A60004FF6FF7209A93046CDE90A750894099529
:101A70000C9405F079FA284603F06CFB4FF6FF72E0
:101A800009A93046CDE90987CDE90B5405F06CFA78
:101A90004FF6FF7209A93046CDE909B7CDE90BA48D
:101AA00005F062FA4FF40C730893089B0C934FF601
:101AB000FF7209A93046CDE909A70B9505F054FA44
:101AC00040F26A51304605F06DFA342221460DEBA2
:101AD000020022F0C0FB204E204B3461C6E90034E6
:101AE0000923C6E905351D23C6E9073B40F20D125F
:101AF00040F24313C6E9092340F2171140F247139D
:101B00003046C6E90B13C6E90244B48686F836406F
:101B100004F0B4FCFF21F022CDE9121424E000BF50
:101B2000003802400010024000080240000C024051
:101B30000018024000000240AC22002000300240A9
:101B400018220020A086010008210020C8200020C3
:101B5000D4200020400100A0702100200068014036
:101B6000005C0040005001404FF4806005214FF4BC
:101B7000A073CDE91401CDE90E240DA9CDE91642DB
:101B8000304622464E4E1893CDE910380D94ADF8EC
:101B900064408DF8664004F025FD4A4B33601B68B5
:101BA000DFF87CA198473368474EDB689847474B7E
:101BB0003046C6E90034C6E90284C6E90A48C6E9E7
:101BC0000C4403F06FFD2946304603F021FE404EE1
:101BD0004A4621460DA822F03EFB3E4BB4604FF42E
:101BE000803B3046C6E9003B3461347686F82040BD
:101BF000F462C6F828A0F460F56186F8304075619B
:101C000003F0BCFA0DA93046CDE90D55324E0F94C4
:101C100003F04AFC4A4621460DA822F01CFB2F4B3C
:101C2000B4603046C6E9003BC6E90AA434613476A4
:101C300086F82040F460F56186F83040756103F065
:101C40009DFA0DA93046CDE90D850F9403F02CFCCB
:101C50002348244B036005F01BF9FEF729FDFEF72E
:101C600026FD05F023FF204A2946384606F05AF89B
:101C70001E4B1F4A18602946384606F053F81D4B84
:101C80001D4A18602946384606F04CF81B4B1C4A82
:101C900018602946384606F045F81A4B1A4A18606B
:101CA00021461A4805F02EFF194B1A4A18602146A2
:101CB000194805F027FF194B186005F009FFFEE7EA
:101CC000B4200020240000206C22002000B002403C
:101CD000FC22002000200140B4220020002101400D
:101CE0006021002000080650A85F0208C4200020E0
:101CF000905F0208C0200020785F0208BC2000200E
:101D0000605F0208B8200020E45F0208FD160008AA
:101D1000D0200020C05F0208BF060008CC200020B1
:101D20000100000F704770477FB5094B8DF81720F1
:101D30001B6802930DF117020123009201930A46DA
:101D40000146044804F048F907B05DF804FB00BF01
:101D500010000020182200207FB500238DF81730D6
:101D6000084B1B6802930A4601230DF117010091ED
:101D700001930146044804F0BFF99DF8170007B02D
:101D80005DF804FB10000020182200201FB5084C4D
:101D900024680092CDE901340A4601230146054832
:101DA00004F0AAF9003818BF012004B010BD00BF2C
:101DB000100000201822002003F0CCB910B5064C0A
:101DC00000222046042103F051FE20460122BDE8F6
:101DD0001040042103F04ABE0008024038B50B4D04
:101DE000044601220A484FF4005103F03FFE00224E
:101DF0000421284603F03AFE2046FFF745FC28461A
:101E00000122BDE83840042103F030BE0008024042
:101E1000000C024038B50B4D044600220A484FF42E
:101E2000005103F023FE00220421284603F01EFE89
:101E30002046FFF729FC28460122BDE8384004214E
:101E400003F014BE00080240000C0240F7B5144E27
:101E5000144F05460C4630460022042103F006FECE
:101E600000224FF40051384603F000FE2846FFF7E9
:101E70000BFC0D4B0D481B68224601A905F078FBB1
:101E8000384601224FF40051019C03F0EFFD30462B
:101E90000122042103F0EAFD204603B0F0BD00BF9B
:101EA00000080240000C02400C0000200821002025
:101EB00003F050B90268034B9A4201D103F038B9DC
:101EC000704700BF001000407047000082B00E4B0A
:101ED00000220092596C41F480415964596C01F41C
:101EE0008041009100990192196C41F08051196470
:101EF0001B6C03F080530193019B0F216FF00100D5
:101F000002B003F07FBB00BF0038024010B51422BE
:101F10008AB0044600210DEB020022F09CF92368F0
:101F20001E4A93421FD11E4B002101915A6C42F46C
:101F300080725A645A6C02F480720192019A029182
:101F40001A6B42F001021A631B6B03F00103029348
:101F5000029B022305931348032305A9069303F06C
:101F60009BFC0AB010BD104A9342FAD10C4B0021E1
:101F700003915A6C42F400725A645A6C02F4007273
:101F80000392039A04911A6B42F001021A631B6BCD
:101F900003F001030493049B0423DBE700200140CA
:101FA0000038024000000240002101400268094B55
:101FB0009A4282B00BD100230193074B1A6B42F473
:101FC00080521A631B6B03F480530193019B02B090
:101FD000704700BF003002400038024007B50F4B89
:101FE00002689A4216D10022A3F5F0430192196BC0
:101FF00041F4000119631B6B03F4000301930521F5
:102000005A20019B03F0FEFA5A2003B05DF804EB5E
:1020100003F02ABB03B05DF804FB00BF00B0024030
:102020002DE9F043044689B01422002103A822F0D0
:1020300012F92268244B9A4243D1244C24480025AB
:102040000095236B43F004032363236B03F0040325
:102050000093009B0195236B43F001032363236BE3
:1020600003F001030193019B4FF012094FF4007339
:102070004FF001080327042603A9CDE90339CDE970
:102080000587079603F008FC4FF480731148079604
:1020900003A9CDE90339CDE9058703F0FDFB0295DE
:1020A000236C43F400032364236C03F400030293C2
:1020B000029B236A43F400032362236A23F4000390
:1020C000236209B0BDE8F083005C004000380240A4
:1020D0000008024000000240F0B599B00446142206
:1020E000002107A822F0B7F830220DEB02000021F2
:1020F00022F0B1F822685E4B9A4240F0B780082384
:102100000C93C0231093042312930CA84FF40033B4
:10211000159304F091FD08B1FFF7D6FE554B5648D4
:10212000002400945A6C42F080625A645A6C02F0A7
:1021300080620092009A01941A6B42F020021A63A6
:102140001A6B02F020020192019A02941A6B42F07B
:1021500001021A631A6B02F001020292029A0394BE
:102160001A6B42F002021A631A6B02F00202039227
:10217000039A04941A6B42F040021A631A6B02F03D
:1021800040020492049A05941A6B42F004021A6306
:102190001A6B02F004020592059A06941A6B42F03B
:1021A00008021A631B6B03F00803069302250E2630
:1021B000069B0B964FF4806307A9CDE90735CDE95F
:1021C000094503F069FB41F658032C480B9607A913
:1021D000CDE907350927CDE9094503F05DFB032368
:1021E00027480B9707A9CDE90735CDE9094503F045
:1021F00053FB4FF4706322480B9607A9CDE90735CE
:10220000CDE9094503F048FB4FF40C631D480B96DC
:1022100007A9CDE90735CDE9094503F03DFBC0230A
:1022200019480B9607A9CDE90735CDE9094503F013
:1022300033FB082315480B9607A9CDE90735CDE9EF
:10224000094503F029FB4FF4A0530E480B9707A94B
:10225000CDE90735CDE9094503F01EFB582022469C
:10226000052103F0CFF9582003F0FEF919B0F0BDB5
:1022700000680140003802400014024000000240A3
:10228000000402400018024000080240000C024016
:102290000268094B9A4282B00BD100230193074B8D
:1022A0005A6B42F040025A635B6B03F040030193A8
:1022B000019B02B0704700BF000806500038024082
:1022C00010B5044688B01422002103A821F0C3FFF2
:1022D0002268144B9A4223D103F5684300210191EF
:1022E0005A6C114842F480125A645A6C02F48012FB
:1022F0000192019A02911A6B42F020021A631B6B41
:1023000003F020030293029B4FF460720223032127
:10231000CDE903230523CDE9061303A903F0BCFA95
:1023200008B010BD00500140001402402DE9F041FA
:1023300086B0002303932B4B1C68002C4FD14FF029
:102340000108C3F80080284B00949A6B274842EAA2
:1023500008029A639B6B03EA080300930227032693
:102360000C25009B01A94FF63F03CDE90137CDE9CC
:10237000046503F091FA1E48059501A9CDE901878E
:10238000CDE9034603F088FA48F23313194805955E
:1023900001A9CDE90137CDE9034603F07DFA4FF6F7
:1023A00083731548059501A9CDE90137CDE90346A9
:1023B00003F072FA4CF203731048059501A9CDE9B8
:1023C0000137CDE9034603F067FA60230C48059511
:1023D00001A9CDE90137CDE9034603F05DFA06B066
:1023E000BDE8F08144230020003802400014024080
:1023F000000802400018024000100240000C024099
:102400000004024070B588B000230293204B1A6C80
:1024100042F010021A641B6C03F01003029305468D
:1024200001A903A8029B04F0E9FB069B4BBB04F047
:10243000D5FB184E184B336040F2E733F360174B6F
:10244000B0FBF3F3013B7360304600233361B360AC
:10245000B36105F057FA044680B9304605F02CF90F
:10246000044658B9362003F0FFF80F2D0DD8224648
:102470002946362003F0C6F8094B1D60204608B0F7
:1024800070BD04F0ABFB4000D3E70124F6E700BFCA
:1024900000380240482300200010004040420F0056
:1024A0008C0000207047FEE7FEE7FEE7FEE770477E
:1024B000014805F03FB900BF48230020014804F05F
:1024C00034B800BF70210020014803F017B900BFE5
:1024D0006C2200200120704708B521F05FFF162311
:1024E00003604FF0FF3008BD08B521F057FF1623F9
:1024F0000360FEE770B50D4614460E46731B9C4202
:1025000001DC204670BDAFF3008006F8010BF5E753
:1025100070B50D4614460E46731B9C4201DC2046E6
:1025200070BD16F8010BAFF30080F5E74FF0FF30F8
:1025300070474FF400534B600020704701207047F4
:10254000002070470A4A116808B5034609B90949CD
:1025500011601068694603448B4206D921F01EFFC2
:102560000C2303604FF0FF3008BD1360FCE700BF91
:1025700090230020E0430120704710B50421044659
:1025800020F014FD204610BD012908B506D002290F
:1025900008D059B901F0A0F9006808BD01F09CF914
:1025A0004068FAE701F098F98068F6E70020F4E760
:1025B000004870471C6002081220704713B50024C1
:1025C00051B1036801948DF8034001AA9C680DF194
:1025D0000303A04702B010BD0846FBE7C08970475F
:1025E000008A7047C088704780887047807A00F002
:1025F0007F007047807AC009704700207047000054
:102600009FED010A704700BF00000000806A70471C
:10261000704710B50821044620F0C8FC204610BDC4
:102620007047704700F598730868496803C370479E
:10263000704770474160704770477047064BC0F85D
:102640004C310023C0F8503100F5A273C0F84801A6
:10265000C0F84031704700BFD5270008012303723E
:1026600070477047704710B4C26841685410034601
:1026700001EB6200D20748BF0A599B685DF8044B22
:1026800048BFD35818470346406830B19A681AB912
:10269000D86800F0010070470120704710B50C2188
:1026A000044620F083FC204610BD10B510210446DE
:1026B00020F07CFC204610BD10B54FF4AE710446EE
:1026C00020F074FC204610BD10B54021044620F0D7
:1026D0006DFC204610BD10B50DF0E2FD0368BDE8AD
:1026E0001040DB6B18470000054B1B7801462BB1EF
:1026F000406818B103680C315B6E1847704700BF23
:102700009B360120037A70B50546BBB94068036863
:10271000DB69984704463CB96868036805F10C0119
:102720001B6EBDE870401847A1886B8FC91A2368DB
:1027300020461B6B09B29847A469ECE770BD10B541
:102740000446D0F8400158B10368DB68984738B1B7
:10275000D4F8400103689B6898470023C4F84031CF
:1027600010BD70B5044690F8390094F83830013047
:10277000C0B2984284F8390005D90123237200239E
:1027800084F8393070BDB4F93A2000210FF088FF89
:10279000C30706D500284FF6FF73C8BF01231844AE
:1027A00000B2238AC01AA08760680368DB69984773
:1027B00005462DB960680368BDE870405B6918473D
:1027C000A988A38F19442B6828461B6B09B2984728
:1027D000AD69EEE72DE9F14FD0E9556A0746B068DB
:1027E00003681B6A9847EF2805D8444B444AA32145
:1027F000444821F017FB706803681B6A98470F284C
:1028000003D8414B3E4AA421F2E7F06803681B6AF3
:1028100098470B2803D83D4B394AA521E8E70DF02E
:102820003FFDDFF8F09004300DF078FDD9F800009E
:1028300010B10368DB689847D9F8000010B103684D
:102840001B689847DFF8D080D8F8000010B1036803
:102850005B699847D7F83C0110B103685B689847FB
:10286000D8F8000010B103681B689847D7F83C01FE
:1028700010B103689B689847F068036800215B6AA1
:1028800098474FF0000B224BC0F804B0044680F884
:1028900008B00360B068036859465B6A984705460C
:1028A00001F002FD7068036859465B6A9847294643
:1028B000064601F0D9FC331DC7F83C61C9F8004059
:1028C000C8F80050CAF800302B68C6F808A028469F
:1028D000DB68EE639847336830461B6898472146AB
:1028E00028460FF0D7FE236820461B6998472368C7
:1028F0005B69204601B0BDE8F04F18470954020853
:10290000975402086F550208B65502085956020836
:1029100008620208E4360120E0360120044B1B68FF
:1029200093F858200AB1D86C00B99868704700BF76
:102930009C360120F8B5174604460E460DF0BCFD46
:10294000124B1C60124B2360124B0025C4E9513519
:10295000114BC4E953551868036801219B68C4E909
:102960004F55C4E955769847284600F069FFFFF7B0
:10297000D5FF18F018FAFFF7D1FF18F08FFAFFF71C
:10298000CDFF18F097FA2046F8BD00BFF0360120C1
:10299000B46102089C6102089C360120064BC0F815
:1029A0004C310023C0F8503100F5A273C0F8480143
:1029B000C0F84031704700BFD5270008064BC0F86B
:1029C0004C310023C0F8503100F5A273C0F8480123
:1029D000C0F84031704700BFAD2B0008064BC0F86F
:1029E0004C310023C0F8503100F5A273C0F8480103
:1029F000C0F84031704700BF712A00082DE9F0414E
:102A000005460026164B4660067245F80C3B044608
:102A100028460F460AF040F9124B84F838701B78AC
:102A200084F83960A68723B9012323722046BDE8C4
:102A3000F0810D4B0D4FB3F90080E368B7F900103A
:102A40009B6B266128469847E3684146DB6B284626
:102A5000984728460AF09BF83B885B426387E5E786
:102A60002C6202089B36012092360120903601200C
:102A70002DE9F047D0E9556A0746B06803681B6A3C
:102A8000984740F67733984205D8414B414AA321F5
:102A9000414821F0C7F9706803681B6A98470F28FE
:102AA00003D83E4B3B4AA421F2E7F06803681B6A57
:102AB00098473F2803D83A4B364AA521E8E70DF05E
:102AC000EFFBDFF8E09004300DF028FCD9F80000AF
:102AD00010B10368DB689847D9F8000010B10368AB
:102AE0001B689847DFF8C080D8F8000010B1036871
:102AF0005B699847D7F83C0110B103685B68984759
:102B0000D8F8000010B103681B689847D7F83C015B
:102B100010B103689B689847F068036800215B6AFE
:102B2000984714210446FFF769FFB0680368002145
:102B30005B6A9847054600F081FF706803680021D2
:102B40005B6A98472946064600F00CFF331DC7F81C
:102B50003C61C9F80040C8F80050CAF800302B6842
:102B6000C6F808A02846DB68EE639847336830460D
:102B70001B689847214628460FF08CFD23682046A5
:102B80001B699847236820465B69BDE8F0471847F2
:102B900009540208FC5602086F550208B65502088F
:102BA00059560208E4360120E03601202DE9F047AD
:102BB000D0E9556A0746B06803681B6A9847EF2852
:102BC00005D8414B414AA321414821F02BF97068B7
:102BD00003681B6A98470F2803D83E4B3B4AA42141
:102BE000F2E7F06803681B6A98473F2803D83A4B1E
:102BF000364AA521E8E70DF053FBDFF8E0900430FA
:102C00000DF08CFBD9F8000010B10368DB68984721
:102C1000D9F8000010B103681B689847DFF8C0803E
:102C2000D8F8000010B103685B699847D7F83C01F9
:102C300010B103685B689847D8F8000010B10368CA
:102C40001B689847D7F83C0110B103689B68984708
:102C5000F068036800215B6A984714210446FFF777
:102C6000CDFEB068036800215B6A9847054601F015
:102C70001BFB7068036800215B6A9847294606467B
:102C800001F0F2FA331DC7F83C61C9F80040C8F8FA
:102C90000050CAF800302B68C6F808A02846DB6848
:102CA000EE639847336830461B68984721462846AC
:102CB0000FF0F0FC236820461B69984723682046E4
:102CC0005B69BDE8F047184709540208E757020856
:102CD0006F550208B655020859560208E43601201D
:102CE000E03601207047704770477047704730B535
:102CF000036885B06D460181D3F8843001460446EF
:102D00002846984795E807003C3484E8070005B05A
:102D100030BD30B5036885B06D464181D3F884304D
:102D2000014604462846984795E807003C3484E865
:102D3000070005B030BD0022028042808280C28040
:102D4000704780F83610704770B5036804461B6BF7
:102D5000154698472368294620465B6EBDE87040BB
:102D6000184700207047806C704770477047704765
:102D7000704730B4C26844685510034604EB6200E3
:102D8000D20748BF62599B6830BC48BFD358184728
:102D90000346406830B19A681AB9D86800F001005B
:102DA00070470120704710B54C21044620F0FEF812
:102DB000204610BD10B51021044620F0F7F820463B
:102DC00010BD10B54FF44071044620F0EFF82046D6
:102DD00010BD08B5FEF762FB08BD0000036870B5C2
:102DE0005E6B124B1B6804468DB22BB9104B114A17
:102DF0006C21114821F016F81049828D0988914202
:102E000003D80F4B0B4A6D21F3E713F812200D4B3B
:102E10001B6853F8220003681B6B9847291A334636
:102E2000204609B2BDE87040184700BFF4360120C3
:102E3000D2580208145902084F590208F8360120E6
:102E400096590208FC3601209830884208B505D111
:102E50000DF026FABDE80840FFF7B0BD08BD00221E
:102E60004FF0FF31C0E900218260704770B5036800
:102E700004461B6B154698472368294620465B6B22
:102E8000BDE87040184770B504461D46BDF9106096
:102E9000FFF7ECFF2368294620469B6B9847236881
:102EA00031462046DB6BBDE8704018470022C0E980
:102EB0000122C0E90322C0E90522C0E907224FF43C
:102EC00080728284014A0260704700BF506202082B
:102ED00038B5262204460D46002121F0BCF92046D3
:102EE000FFF7E4FF064B23602B88E384FF23204693
:102EF00084F8283029460AF0F0FC204638BD00BF8F
:102F0000DC690208F8B5194B018F1B888B42064615
:102F10002AD9174B1B682BB9164B174A17486C2137
:102F200020F080FF13F81120154B1B6853F8225036
:102F3000144B186800F0C0FC2B6807469B6B2846B2
:102F400098472B6804469B6C3946284698472B685F
:102F500014FB00F45B6A394628469847A4B223184C
:102F60001BB2A6F84630F8BD0023FAE7F836012078
:102F7000F4360120D2580208145902084F590208A9
:102F8000FC3601200037012010B52622044600211E
:102F900021F061F92046FFF789FF0A4B23600A4BB5
:102FA000A3624FF6FF73A3854FF47F020023C4E9A9
:102FB0000C3223874FF0FF32C4E91023E36320462D
:102FC00010BD00BFE46802088C6102082DE9F04FD3
:102FD000044693B0A04600250FF0B0F9984BE56386
:102FE00048F8403B26222946404621F034F9404625
:102FF000FFF75CFF934B236404F16C0BFF234FF648
:10300000FF7604F1980A84F8663010A95846A56640
:1030100004F1E009ADF84060FFF75AFF50460AF0AE
:1030200093FD48460AF090FD04F5947310A91846E4
:103030000793ADF84060FFF74BFF04F5AA7310A9A2
:1030400018460893ADF84060FFF742FF04F5C073DF
:1030500010A918460993ADF84060FFF739FF04F551
:10306000D6731846784F0593FFF78EFF04F5FC736F
:10307000C4F8AC711846C4F8F4510693FFF784FF06
:1030800004F51173C4F8F8711846C4F8405203935C
:10309000FFF77AFF04F5237310A918460493ADF8DF
:1030A0004060FFF715FF694BC4F88C324FF0FF37D3
:1030B0000123C4E9AF73664BC4F8B852C4E9BC3409
:1030C000644B84F8C452C4E9BE354FF4A0732A4659
:1030D000404600932946F023FFF7D5FE261D4FF00A
:1030E0007F43A3664146304606F0BAFE2A4658465C
:1030F0002946FFF7BBFE584610A9ADF840500AF02C
:10310000ECFB5946304606F0ABFE5046BD2223216B
:10311000FFF7ACFE4FF0020810AA0FA950464FF07F
:10312000030BADF83C80ADF840B00AF0A4FA0523DB
:103130005046A4F8D030FFF7E5FE04F53C73C4F820
:10314000C03051463046C4E9357706F089FE48461E
:10315000BD222321FFF78AFE10AA0FA94846ADF829
:103160003C80ADF840B00AF086FA4FF00103A4F8B5
:1031700018314846FFF7C6FE49463046C4E947774E
:1031800006F06EFE01220798CC21FFF76FFE4FF08C
:103190000D090798ADF8409010A90AF09EFB079919
:1031A000304606F05DFE01220898A921FFF75EFE79
:1031B0000898ADF8409010A90AF08FFB08993046A6
:1031C00006F04EFE012209988621FFF74FFE09986E
:1031D000ADF8409010A90AF080FB0999304606F03E
:1031E0003FFE1D2304220598009307216023FFF76B
:1031F0004AFED4F8AC310599D3F88430C4F8DC71B8
:103200000DF128094846A4F8E051984799E80700CD
:1032100004F5F47383E807000F4B1B6804F5327A5A
:103220002BB90E4B0E4A60210E4820F0FBFD0E4BD1
:103230001B88022B1CD80D4B094A6121F4E700BF03
:103240006063020874690208B862020868680208CC
:1032500048630208492E0008F4360120D2580208BB
:10326000D45902084F590208F8360120965902082D
:10327000414B41461868DFF8088100F01DFB3F4ACA
:1032800003460A21504610F039FD04230598C4F87E
:10329000F4A110A9ADF844304FF0220ACDF84080D7
:1032A0000AF08CF90599304606F0DAFD0698CDF85B
:1032B00000A073222946F023FFF7E5FDD4F8F8318A
:1032C0000699D3F88430C4F828724846A4F82C52E2
:1032D000984799E8070004F50D7383E8070004F5A3
:1032E0003773C4F840320698A4F8DC5210A9CDF820
:1032F0004080ADF844B00AF061F90699304606F016
:10330000AFFD0398CDF800A0F02373222946FFF704
:10331000BAFD0399C4F874724846A4F8785209F0CB
:10332000A5FE99E8070004F5207383E807000398D9
:10333000CDF8408010A9ADF844500AF03FF9039948
:10334000304606F08DFD04980122D021FFF78EFD56
:103350000A220498092109F08DFD0498012109F041
:103360009CFD3046049984F8B45206F079FD20465D
:1033700013B0BDE8F08F00BF003701201F5A0208CC
:103380008C610208406A7047806A704770478A887B
:103390000B8810B5D20A4C88C1699BB251F8220043
:1033A00043EA0443184410BD10B50446BAB1107B7B
:1033B00068B1537BD27A1B0203F4E0631A43236A99
:1033C00003EB82031A888A4202D193F9020010BDEE
:1033D00005D8013880B204330028F3D1F7E7002084
:1033E000F5E710B52C2104461FF0E0FD204610BD86
:1033F00030B58BB00446BDF860500895BDF85C5000
:1034000007959DF8505006959DF84C5005959DF8F0
:10341000485004959DF8445003959DF840500295FE
:103420009DF83C500195BDF8385000950EF08CFD8C
:10343000064B2360159BE361169B2362199B636215
:103440001A9BA36220460BB030BD00BF94630208F4
:1034500070477047704730B4C268446855100346DF
:1034600004EB6200D20748BF62599B6830BC48BF7A
:10347000D35818470346406830B19A681AB9D868DB
:1034800000F0010070470120704710B5102104467C
:103490001FF08CFD204610BD10B5F02104461FF032
:1034A00085FD204610BD9830884208B505D10CF046
:1034B000F7FEBDE80840FFF791BA08BD2DE9F341DA
:1034C00004460EF03BFF444B2360444B0025C4E907
:1034D00010354FF48072FF2304F16C07A4F86420C8
:1034E00084F86630A4F890204FF6FF733C4AE266F9
:1034F00004F19806A4F8923084F8943001A9C4E944
:103500001255C4E91455C4E91655C4E91C55C4E95B
:103510001E55C4E92055C4E92255E5632566A56614
:103520003846ADF804300AF0D8F930460AF00CFB02
:103530002C4BC4E938342C4B04F14008C4E93A352B
:103540002A4629464046FFF791FC4046F021FDF708
:10355000EFFE40464FF4A071FDF7ECFE251D4FF045
:103560007F43A3664146284606F07AFC1B22384674
:103570001421FFF77BFC112301A93846ADF8043074
:103580000AF0ABF93946284606F06AFC3046BB2201
:103590002321FFF76BFC022301AA6946ADF8003036
:1035A00030460323ADF804300AF065F80623A4F88A
:1035B000D0303046FFF7A6FC4FF0FF33C4E9353377
:1035C00004F1E0032846C4F8C030314606F048FC58
:1035D000204602B0BDE8F081146402087469020854
:1035E000DC690208FC630208A73400087047000089
:1035F00030B5164D2C6814F001048FB0BFF35B8F0B
:1036000020D128461FF0D4FCE0B13F230993104B92
:103610000893104B104911480A940122CDE9064342
:103620000423CDE903320A230093CDE90B44CDE90D
:1036300001440594FFF7DCFE094820F011FC284600
:103640001FF0C2FC05480FB030BD00BF942300201E
:1036500074820208A4820208D880020898230020FD
:10366000ED3500087047000030B5164D2C6814F099
:1036700001048FB0BFF35B8F21D128461FF098FC67
:10368000E8B13F230993104B0893104B10491148A0
:103690000A94CDE9064301220423CDE9033218231D
:1036A00000931B22CDE90B44CDE901440594FFF7BB
:1036B0009FFE094820F0D4FB28461FF085FC0548F2
:1036C0000FB030BDC423002078820208A88202080F
:1036D000E8800208C8230020653600087047000013
:1036E00030B5164D2C6814F001048FB0BFF35B8F1A
:1036F00020D128461FF05CFCE0B13F230993104B1A
:103700000893104B104911480A940122CDE9064351
:103710000423CDE9033228230093CDE90B44CDE9FE
:1037200001440594FFF764FE094820F099FB284600
:103730001FF04AFC05480FB030BD00BFF423002045
:10374000A0820208AC82020864820208F8230020EA
:10375000DD36000800207047002070470EB403B526
:1037600003AB002153F8042B01930DF06BFE02B064
:103770005DF804EB03B070470CB407B504AB53F825
:10378000042B01930DF05EFE03B05DF804EB02B074
:1037900070470000436C10B5044673B3038F2BB918
:1037A000184B194AC521194820F03CFBC38E00EB89
:1037B00043035B8C0BB30FF0F8FC238F012B03D872
:1037C000134B144ACB21EEE7E28E531C9BB2092B1C
:1037D000194688BFA3F10A0104EB410140F63F10EE
:1037E000498C814209D10A2B04EB420228BF0023F5
:1037F00004EB4303508C588451842046BDE81040AC
:103800000FF0D6BB225A02082B5A0208D65A0208D9
:10381000205B02082E5B02080FF091BB10B586B04A
:1038200002AC84E806001A460AAB05930193099B93
:1038300000932146089B0CF0D1F806B010BD0000A3
:1038400038B518BB124B13481C681349B4B1226831
:1038500022440260626822440A60A26814440F4B4A
:1038600000221A8000F038F8054600F033F80C4BBF
:103870001C600C4B1D600C4B188007E00B4B036069
:103880000B4B0B600B4B1C68002CE8D138BD00BF04
:103890003024002028240020242400202C24002070
:1038A000F4360120FC360120F8360120CC820208D3
:1038B000B082020820830208044B1B6853F82100E1
:1038C000034B1B6803EB4000704700BF242400201B
:1038D0002824002007207047004870473424002027
:1038E00010B5FFF7C1FE044C2060FFF7F9FE6060E1
:1038F000FFF77EFEA06010BD3424002010B5002428
:1039000004600C6014601C6010BD704710B54FF46B
:10391000AE7104461FF04AFB204610BD10B50446A8
:10392000D0F8580100F0CFFC2046BDE810400CF064
:1039300053BD000010B50446FEF7FCFF014B2360A9
:10394000204610BD4864020870470438704770472D
:1039500010B5102104461FF029FB204610BDA0F130
:103960000400F5E700228260024A026018324260D9
:10397000C16070479C64020810B50D4C206818B1F6
:1039800004F004F9002323600A4B01221A600A4A5A
:1039900000231370094A1370094A1370094A1370FF
:1039A000094A938003239385084BD36010BD00BF61
:1039B000442400201C000020512400204A24002020
:1039C0004924002040240020042900206400C8006D
:1039D000134B70B5044603604FF4326540F6681629
:1039E000B54205D0635960191B6898472C3DF7E72D
:1039F000635960191B682C3D9847B5F5F66FF7D1F0
:103A00004FF4F465635960191B683C3D9847B5F560
:103A10003C7FF7D12046FFF7AAF9204670BD00BFD2
:103A2000C464020810B50446FFF7D2FF204640F6F2
:103A300078311FF0BBFA204610BD00002DE9F04F91
:103A400005468DB0FFF7C2FA05F5407A774B2B603B
:103A50004FF6FF7769465046ADF80070FFF738FA29
:103A600005F54B79DFF8CCB105F2DC784C46002641
:103A700020466946ADF80070FFF72AFA0123C4F822
:103A800000B0E6622786678684F8343084F83560B3
:103A900084F8366084F8376084F838603C344445F4
:103AA000E6D105F6941B26464FF6FF773046694669
:103AB0002C36ADF80070FFF70BFA5E45F6D1D8460C
:103AC00005F64C374FF6FF764046694608F12C085C
:103AD000ADF80060FFF7FCF9B845F5D169464046FE
:103AE000ADF80060524EFFF7F3F9684600F0E2FCD3
:103AF000BDF80430B380BDF91C30039AB383089B32
:103B0000F2603362049A099B32617362059A0A9BE0
:103B100072612F1D069AB3626846BDF82C30B385DA
:103B2000B26100F0D9FC384605F1980106F0D9F9E8
:103B3000384605F5FC7106F0D4F9384605F1E00188
:103B400006F0CFF9384605F5117106F0CAF9384686
:103B500005F16C0106F0C5F9002269464046ADF852
:103B6000002009F0BAFE002211464046FFF77EF918
:103B7000002285F8712B3846414606F071F90F2373
:103B800069465046ADF8003009F0A7FEB6F90E20A0
:103B9000B6F90C105046FFF769F93846514606F061
:103BA0005FF9052704F5DC76212240F24111304609
:103BB000FFF75CF9D4F8B83169461B6EADF80070B8
:103BC000304698472046212240F24111FFF74EF936
:103BD000236801221B6EADF80020204669462C3474
:103BE00098475C45DED100240326B4FBF6F303EBD3
:103BF0004303E31A012B13D0022B14D00822072110
:103C0000484609F037F901344846142109F045F9CE
:103C1000142C09F13C09E8D128460DB0BDE8F08F1D
:103C20000A220921ECE70C220B21E9E7C46402080F
:103C300004290020686802082DE9F041051D00F5FF
:103C4000D67804464146284604F5C07706F049F97F
:103C50004146284606F004F93946284604F5AA7676
:103C600006F03FF93946284606F0FAF8314628466C
:103C700006F037F904F594743146284606F0F0F85A
:103C80002146284606F02DF92146284606F0E8F898
:103C900040460DF001FD38460DF0FEFC30460DF0BB
:103CA000FBFC2046BDE8F0410DF0F6BC2DE9F04FDD
:103CB0004A4E8FB00446306804F0D0F80546002D17
:103CC00040F082809DF81280454DB8F1010F2BD154
:103CD000DFF8249199F80030002B4DD1261D04F116
:103CE00098073946304606F0BBF804F5FC7AAB88F5
:103CF0003C4A0A2104F5377010F000F8514630466E
:103D000006F0AEF838460DF0C7FC50460DF0C4FC86
:103D100030460DF0C1FC344B89F8008083F80080F8
:103D2000324B186803F032FF9DF81230022B23D17A
:103D3000DFF8C48098F80030F3B9261D04F1E007DD
:103D40003946304604F5117906F08AF8494630467E
:103D500006F086F838460DF09FFC48460DF09CFCB6
:103D600030460DF099FC204A0123137088F800308A
:103D70001E4B186803F00AFF1D4F4FF0000838680B
:103D80008DF8138004F06AF804F54076002843D0DB
:103D90004FF0FF33386842460DF1130104F02EF85E
:103DA0009DF81330522B29D1B5F92810114800F095
:103DB00013FC1023304605A9ADF8143009F08DFD31
:103DC000386804F04DF827E0002330681A460DF1FA
:103DD000120104F013F8013D71E700BFB820002084
:103DE00004290020005C020849240020442400200B
:103DF000C42000200C290020402400204E2B40F03D
:103E00005481C148414600F0E7FB0F2305A9304625
:103E1000ADF8143009F061FDBC4FDFF82C83386831
:103E200004F01CF8A8B14FF0FF33386800220DF100
:103E3000130103F0E3FF9DF81330552B40F03D8153
:103E4000B148B5F9281000F0C9FBD8F8000004F01B
:103E500007F8D8F8000004F001F8B0B14FF0FF33D4
:103E6000D8F8000000220DF1130103F0C7FF9DF800
:103E70001330442B40F02981A96AA348494209B272
:103E800000F0ACFB386803F0EBFF3046B5F90E20CC
:103E9000B5F90C109E4FFDF754FA04F2DC7904F6E4
:103EA000941B4E4604F10408B7F91030022B00F0C1
:103EB0001481042B00F02281012B07D13368B7F95C
:103EC00006209B6DB7F90410304698472C365E45A6
:103ED00007F11C07E8D18F4F5E4604F64C3A04F117
:103EE0000408B7F91030022B00F03081042B00F0E9
:103EF0003E81012B07D13368B7F906209B6DB7F9D6
:103F00000410304698472C36564507F11C07E8D177
:103F100004F5966304F54B7A03937F4ECDF804A025
:103F2000231DA0460293B6F91030022B00F0258124
:103F3000042B00F03D81012B08D1D8F82C33B6F9C1
:103F400006209B6DB6F9041001989847019B3C33FD
:103F50000193039B08F13C08984506F12006E2D145
:103F60006E4AB5F92C3011788B4204F1040616D054
:103F7000DBB21370502284F8502184F87C2184F83D
:103F8000A821002B00F01F81FF22012B84F8502173
:103F900005D0022B84F87C2118BF84F8A821AB88B7
:103FA0005F4A0A2104F532700FF0A8FE30460DF08A
:103FB00073FB94F80C31002B74D05A4D286818B15B
:103FC00003F0E4FD00232B60574B02221A60574A8E
:103FD00000231370564A1370564A1370564A1370D2
:103FE000012384F8713B04F64C300DF055FB64203E
:103FF00003F0E4FD2046FFF71FFE00F01FFD04F272
:10400000DC77514630460AF13C0A05F06AFFBA45B2
:10401000F7D14946304605F064FF09F5DC713046BA
:1040200009F12C0905F05DFFD945F2D104F1E00852
:1040300004F511774146304605F053FF39463046C6
:1040400005F04FFF40460DF027FB38460DF024FBEE
:1040500030460DF021FB04F5C0700DF01DFB04F59A
:10406000AA700DF019FB04F594700DF015FB04F522
:10407000D6700DF011FB0024304B8DF81240202239
:10408000214606A81C6020F0E6F82D4B05934FF45E
:1040900080421823CDE90A232A4805AA214603F0C5
:1040A00031FD28600FB0BDE8F08FA96A164849427B
:1040B00009B200F091FA0E237CE64E2B7FF4C9AED4
:1040C0001148002100F08AFAC3E64E2B7FF4DDAEE2
:1040D0000D48002100F082FAD7E63368B7F90620D0
:1040E0009B6DB7F90410304698473146404605F0BD
:1040F000B7FE0121384600F0B3F9E7E63146404605
:1041000005F0EFFE0321F5E70C290020C020002078
:10411000EC270020D4260020542400201400002086
:10412000005C0208442400201C00002051240020D0
:104130004A240020492400204024002020000020A0
:10414000035C0208B1470008BC2000203368B7F9BF
:1041500006209B6DB7F9041030469847314640461B
:1041600005F07EFE0121384600F07AF9CBE63146B3
:10417000404605F0B6FE0321F5E7D8F82C33B6F932
:1041800006209B6DB6F9041001989847D8F82C3397
:1041900001985B6E1F4601231A460021B847DDE9EE
:1041A000011005F05DFE0121304600F059F9CDE621
:1041B000D8F82C3301989B6E9847DDE9011005F083
:1041C00090FE0321F0E730460DF066FAE7E600BF07
:1041D00010B504468AB0FEF7CBFD012384F8713B8D
:1041E00004F64C30124C0DF057FA206803F0CEFC68
:1041F000104B186803F034FE2022002102A820F0A2
:104200002AF80D4B01934FF480421823CDE9062381
:10421000002101AA094803F075FC094A2060002327
:104220001370084A1370084A13700AB010BD00BF1B
:1042300044240020B8200020035C0208B147000895
:104240004A240020492400204024002070470438DC
:104250007047704710B5102104461EF0A7FE204697
:1042600010BDA0F10400F5E700228260024A02605E
:1042700018324260C1607047F8640208704700005D
:1042800010B5034B03600446FFF7E3F8204610BD6A
:104290002065020810B50446FFF7F2FF2046F02122
:1042A0001EF084FE204610BD10B50446FFF706F947
:1042B000014B2360204610BD20650208FFF7CAB8F5
:1042C000002202607047704710B5034B036004463C
:1042D00000F0B1F8204610BD5465020810B5044640
:1042E000FFF7F2FF20461C211EF060FE204610BDA5
:1042F00010B5044600F0AAF8064B23604FF4C873CB
:10430000A3614FF018110023C4E90213024B23618B
:10431000204610BD5465020803009001B0F9083032
:1043200010B5B0F904405B429C420BDBF02C09DC79
:10433000B0F90A30B0F906205B429A4202DBB2F5CE
:10434000A07F05DD0423038283694382002010BD22
:10435000438A591A09B200294182F7DC83891C4437
:10436000C38984801A448369C28043820120EEE7B6
:1043700010B5034B0360044600F05DF8204610BD05
:104380006865020810B50446FFF7F2FF20462021B9
:104390001EF00CFE204610BD10B5044600F056F885
:1043A000084B23604FF4167246F2A813C4E90623A3
:1043B0004FF020110022C4E90212034A2261A382B5
:1043C000204610BD6865020803005802B0F90830A5
:1043D000B0F904205B429A4210B508DBF02A06DCF3
:1043E000B0F90A30B0F906405B429C4207DA042378
:1043F0000382C369838283694382002010BD438A9C
:10440000591A09B200294182F7DC83891A44C38909
:1044100082801C448369C48043820120EEE7838A42
:10442000591A09B20029D8BFC3698182DABF8382D1
:1044300001200020704770470020704710B51821F8
:1044400004461EF0B3FD204610BD0000034A026082
:10445000032202824FF02012826070477C650208BE
:10446000018270478180C28070478181C28170471C
:10447000B0F90420B0F9083010B5B1F90440134484
:10448000A34215DDB1F9083023449A4210DAB0F99D
:104490000630B0F90A20B1F906401A44A24207DDFD
:1044A000B1F90A2022449342ACBF0020012010BD84
:1044B0000020FCE710B5054B036000230446838011
:1044C000083000F033F8204610BD00BF90650208A8
:1044D000838819448180704710B5044B044640F826
:1044E000083B00F00FF8204610BD00BF90650208A1
:1044F00010B50446FFF7F0FF204630211EF056FDB0
:10450000204610BD10B5034B03600446FFF793FF30
:10451000204610BDA065020810B50446FFF7F2FF63
:10452000204628211EF042FD204610BD10B504464D
:10453000FFF78CFF03210A480A4B2162A1844FF048
:104540001C11C4E9010142F21072236000214FF4F2
:10455000C873C4E90632E160A2826382204610BDBE
:1045600068000401A0650208438A591A09B20029AB
:1045700041821FDC82888389C1891A44C38812B2B0
:104580000B441BB281698280002AC380418207DA12
:1045900000228280002B07DA0023C38001207047AD
:1045A000D02AF7DDD022F4E7B3F5907FF6DD4FF4A3
:1045B0009073F2E700207047838A591A09B20029E4
:1045C000D8BFC3698182DABF83820120002070478F
:1045D000838C5B1A8384704781817047C1817047E7
:1045E0002DE9F347DFF8A4A0274CDAF80030DFF814
:1045F000A0901B1A0546CAF8003014264FF0000898
:10460000B4F91030032B0AD029462046FFF7DEFE0E
:10461000013E04F12004F3D102B0BDE8F087DAF8DE
:104620000030002BF4DC01A94846CDF8048002F0EC
:1046300047FC08B1CDF80480019B03F0030203F4AA
:104640008073002B02F1FF334FF6E0714FF6FF77D6
:104650000CBFF0210127022B9DBF013202EB820229
:10466000D2002A222046FFF7FDFE002239462046CE
:10467000FFF7FBFE02212046FFF7F2FE42F2107325
:10468000CAF80030C4E700BF5424002020000020F6
:10469000602100202DE9F843014606461348144CDA
:1046A000DFF85080DFF85090FFF786FF04F58C7735
:1046B0000546B4F91030032B08D031462046FFF7E9
:1046C0002DFE1C34BC42F4D1BDE8F88365B1B8F8C6
:1046D0000020B9F80010103A204692B2FFF7C2FE4F
:1046E00002212046FFF7BCFE0025EAE70C29002046
:1046F000EC2700204C2400204E2400202DE9F84314
:10470000274B284E1A68284B1B68022B08BF013222
:104710000C2AA8BF0C2207464FF000094FF01C08D6
:1047200095B2B6F91030012B10D139463046FFF75B
:1047300076FE58B11D4A00231446B2F91010032921
:104740001BD001330A2B02F11C02F6D109F1010939
:10475000B9F1140F06F12006E3D1144C0A25B4F97F
:104760001030012B03D139462046FFF7D7FD013D1C
:1047700004F11C04F3D1BDE8F883F288B18808FB8A
:1047800003441032204692B2FFF76CFE20462A46C0
:104790000021FFF76AFE02212046FFF761FED5E700
:1047A00018000020542400201C000020D4260020E3
:1047B0002DE9F04FDFF87C82DFF87C92002485B091
:1047C00088F8004089F800408D4B4FF6CE72E6180D
:1047D00011463046FFF746FE8A4B4FF6CE72E5187B
:1047E00011462846FFF73EFE4FF6FB720021304689
:1047F000FFF73BFE052200212846FFF736FE032186
:104800003046FFF72DFE1C3403212846FFF728FE13
:10481000B4F58C7FD8D17C4F00253C464FF6CE7244
:1048200011462046FFF71EFE013520460321FFF703
:1048300017FE142D04F12004F0D1744C00267448A6
:10484000012101F00DF9012806F1010608D1714A94
:1048500013680A2B04DC0233C820136003F0AEF99E
:1048600098F800304BB199F80030002BE7D06A4B34
:1048700001221A7005B0BDE8F08F012ED4BF184692
:104880001E46664BA289664D1A80664BE2891A80E5
:10489000C8BF01202870FFF7A3FE29786248FFF700
:1048A00063FE2878FFF7F6FE2878FFF727FF5E49BA
:1048B0003D464FF0000AB5F910B0BBF1010F7FD1B2
:1048C0002846FFF7D5FD5849002879D05648594663
:1048D000FFF77EFE04212846FFF7C2FD52484FF441
:1048E00082726821FFF7BEFD3D464FF0140AB5F90C
:1048F0001030012B2AD1DFF808B10A22BBF91030A1
:104900000093012B65D1594628460192FFF7B0FD6F
:10491000019A00285DD004212846FFF7A1FD04215B
:104920005846FFF79DFD05212046FFF7D1FD009A6F
:104930003E484FF4005101F099F8322003F03EF95F
:104940003A4800224FF4005101F090F8BAF1010A00
:1049500005F12005CBD12B4D33494FF00A0AB5F9AB
:1049600010B0BBF1010F39D12846FFF781FD2E4968
:10497000A0B32D485946FFF72BFE04212846FFF728
:104980006FFD29484FF482726821FFF76BFDB4F97F
:104990002C30002B28DC0124254D88F8004099F8A4
:1049A0000030002B7FF463AF28688DF80F401A4663
:1049B0000DF10F0103F0F1F9322003F0FFF8EEE7FB
:1049C0000AF1010ABAF1140F05F120057FF473AF63
:1049D0008AE7013A0BF11C0B90D1B7E7BAF1010A53
:1049E00005F11C05BBD1D2E7302311488DF80F30FB
:1049F00000231A460DF10F01006803F0CEF91EE7FF
:104A0000EC270020D4260020542400200429002074
:104A10000000024018000020502400204E240020F6
:104A2000482400204C2400200C29002000180240BB
:104A3000B82000204A2400204924002070B5214CD1
:104A400000254FF6CE7211462046FFF70BFD0135CB
:104A500020460321FFF704FD142D04F12004F0D1BA
:104A6000194E0024A5194FF6CE7211462846FFF7BD
:104A7000F9FC2846154D0321FFF7F2FC25444FF6BB
:104A8000CE7211462846FFF7EDFC1C340321284660
:104A9000FFF7E6FCB4F58C7FE4D10D4C0D4BE360E1
:104AA000002104F10800FFF797FD002104F1080040
:104AB000FFF794FD084A00231360084A1370084A60
:104AC000137070BD54240020EC270020D426002051
:104AD000042900206400C800200000204A2400208F
:104AE0004924002038B50F480F4DFFF7E3FC0024A0
:104AF00028191C34FFF7FCFBB4F58C7FF8D10B4D63
:104B0000002428191C34FFF7F3FBB4F58C7FF8D18F
:104B1000074D002428192034FFF73EFCB4F5207F10
:104B2000F8D138BD04290020EC270020D42600202D
:104B300054240020164838B51524013CA0F1200566
:104B400012D114480B24013CA0F11C0514D11248C9
:104B50000B24013CA0F11C0515D0D0F8FC30FC3032
:104B60005B6898472846F4E7D5F8803200F518705E
:104B70005B6898472846E0E7D5F81831FC305B6859
:104B800098472846DFE7BDE838400448FFF7A4BC53
:104B900054240020D4260020EC27002004290020E3
:104BA000F02070474FF4A07070472920FDF732B90C
:104BB0002820FDF72FB908B5FDF700F9CA20FDF749
:104BC00029F9C320FDF70AF90820FDF707F950205D
:104BD000FDF704F9CF20FDF71DF90020FDF7FEF8E1
:104BE000C120FDF7FBF83020FDF7F8F8ED20FDF7C8
:104BF00011F96420FDF7F2F80320FDF7EFF8122019
:104C0000FDF7ECF88120FDF7E9F8E820FDF702F95F
:104C10008520FDF7E3F80020FDF7E0F87820FDF7A8
:104C2000DDF8CB20FDF7F6F83920FDF7D7F82C207A
:104C3000FDF7D4F80020FDF7D1F83420FDF7CEF8C9
:104C40000220FDF7CBF8F720FDF7E4F82020FDF770
:104C5000C5F8EA20FDF7DEF80020FDF7BFF80020D8
:104C6000FDF7BCF8B120FDF7D5F80020FDF7B6F848
:104C70001B20FDF7B3F8B620FDF7CCF80A20FDF7AE
:104C8000ADF8A220FDF7AAF8C020FDF7C3F8102068
:104C9000FDF7A4F8C120FDF7BDF81020FDF79EF840
:104CA000C520FDF7B7F84520FDF798F81520FDF76A
:104CB00095F8C720FDF7AEF89020FDF78FF8362065
:104CC000FDF7A8F8C820FDF789F8F220FDF7A2F853
:104CD0000020FDF783F8B020FDF79CF8C220FDF717
:104CE0007DF8B620FDF796F80A20FDF777F8A720A3
:104CF000FDF774F82720FDF771F80420FDF76EF832
:104D00002A20FDF787F80020FDF768F80020FDF75E
:104D100065F80020FDF762F8EF20FDF75FF82B2023
:104D2000FDF778F80020FDF759F80020FDF756F858
:104D30000120FDF753F83F20FDF750F8F620FDF76E
:104D400069F80120FDF74AF80020FDF747F8062032
:104D5000FDF744F82C20FDF75DF8C820FDF7A8F812
:104D60002620FDF757F80120FDF738F8E020FDF781
:104D700051F80F20FDF732F82920FDF72FF82420F5
:104D8000FDF72CF80C20FDF729F80E20FDF726F88A
:104D90000920FDF723F84E20FDF720F87820FDF7D5
:104DA0001DF83C20FDF71AF80920FDF717F813202D
:104DB000FDF714F80520FDF711F81720FDF70EF8A0
:104DC0001120FDF70BF80020FDF708F8E120FDF7B2
:104DD00021F80020FDF702F81620FCF7FFFF1B204A
:104DE000FCF7FCFF0420FCF7F9FF1120FCF7F6FFAD
:104DF0000720FCF7F3FF3120FCF7F0FF3320FCF72E
:104E0000EDFF4220FCF7EAFF0520FCF7E7FF0C204E
:104E1000FCF7E4FF0A20FCF7E1FF2820FCF7DEFFA7
:104E20002F20FCF7DBFF0F20FCF7D8FF1120FCF749
:104E3000F1FFC820FDF73CF82920FCF7EBFFBDE8A7
:104E400008402C20FCF7E6BF08B5FCF7B7FF0321AC
:104E5000D320FCF7FBFF80B208BD10B5C4B202221C
:104E600003212046FCF760FF0A20FCF7A5FF20463F
:104E700000220321FCF758FFBDE810400220FCF798
:104E80009BBF38B50446E4B2FCF74CFF0021204636
:104E9000FCF762FF012105462046FCF75DFF40EA72
:104EA000052080B238BD10B5C4B240212046FCF7C1
:104EB00053FF030607D54C212046FCF74DFF003871
:104EC00018BF012010BD01224B212046FCF72CFF0A
:104ED000204600224B21FCF727FF0020F2E773B5A4
:104EE0000423C4B20E461546D7210DEB030220461B
:104EF000FCF74CFF019B1BBA1A0DC3F30B23328046
:104F000020462B8001224B21FCF70EFF00224B2173
:104F10002046FCF709FF02B070BD000010B50A4A38
:104F20001378984204460DD0517888420AD00BB1CC
:104F300041B90123D454FCF7F5FE2046BDE81040EA
:104F4000FFF78BBF10BD00BF3429002010B5C4B2DD
:104F500009212046FCF700FF40F00102D2B22046B2
:104F60000921BDE81040FCF7DFBE10B5C4B209212D
:104F70002046FCF7F1FE092100F0FE022046BDE8C4
:104F80001040FCF7D1BE38B5C4B20D4620460A2108
:104F9000FCF7E2FE40EA0502D2B220460A21BDE853
:104FA0003840FCF7C1BE10B50446FCF7BCFE2046F5
:104FB0001F21FFF7E8FF2046BDE81040FFF7C6BFFE
:104FC00038B5C4B20D4620460A21FCF7C5FE20EADA
:104FD0000502D2B220460A21BDE83840FCF7A4BE43
:104FE00010B50446FFF7C1FF20461F21BDE8104061
:104FF000FFF7E6BF10B5C0B20C460B21FCF7ACFEC4
:10500000204010BD1F21FFF7F5BF0A46C0B20B219B
:10501000FCF78ABE1F21FFF7F8BF38B5C4B20D46B2
:1050200020461721FCF798FE20EA0502D2B220465E
:105030001721BDE83840FCF777BE70B5C4B206460C
:1050400004212046FCF788FE042100F0FB020546FF
:105050002046FCF769FE3046F021FFF7DEFF05F041
:10506000F80220460421FCF75FFE49222021204659
:10507000FCF75AFE0220FCF79FFE20460122212168
:10508000FCF752FE20469A224121FCF74DFE2046B5
:1050900001224A21FCF748FE204601224B21FCF761
:1050A00043FE204600224B21FCF73EFE2046012213
:1050B0005621FCF739FE204601225821FCF734FE28
:1050C000204601224021FCF72FFE2046FF220B2123
:1050D000FCF72AFEBDE870400220FCF76DBE000020
:1050E000054BD3F8882042F47002C3F888204FF0B3
:1050F00000629A60704700BF00ED00E008B50B4BFE
:105100001A6842F400721A601A6842F480621A60E7
:105110001A6842F480721A60032000F061FA0020DD
:10512000FDF770F9FCF7D2FE002008BD003C0240FC
:10513000034A044B11681B780B441360704700BF8F
:105140003829002088000020014B1868704700BFF4
:105150003829002038B50446FFF7F6FF631C1CBF52
:10516000054B1B78054618BFE418FFF7EDFF431BFE
:10517000A342FAD338BD00BF8800002038B50446EA
:10518000002800F09B80056C25B9FCF7BFFE656424
:1051900084F83C50236CDB0600F18E80236C23F4F2
:1051A000885323F0020343F002032364444B5A68FC
:1051B00022F440325A605A6861680A435A60236890
:1051C00021695A6822F480725A605A6842EA0122C0
:1051D0005A605A68A16822F040725A605A680A43BD
:1051E0005A609A68E16822F400629A609A680A43F9
:1051F0009A603449A26A8A4252D0996821F070615B
:10520000996099680A439A609A68E16A22F040526C
:105210009A609A680A439A609A6822F002029A6039
:105220009A68217E42EA41029A6094F82020002A7E
:105230003ED05A68616A42F400625A605A6822F4A9
:1052400060425A605A68013942EA41325A60DA6A69
:10525000E16922F47002DA62DA6A013942EA015243
:10526000DA629A6822F400729A609A6894F83010B0
:1052700042EA41229A609A68616922F480629A60E7
:105280009A68002042EA81229A606064236C23F0CD
:10529000030343F001032364002384F83C3038BD4A
:1052A0009A6822F070629A609A6822F04052B2E7DF
:1052B0005A6822F40062C9E70120EDE70120EEE719
:1052C000002301400100000F82B00023019390F8F9
:1052D0003C30012B69D0012380F83C3003689A6888
:1052E000D2070BD59A68D1071AD4036C43F0100388
:1052F0000364436C43F0010343644CE09A682C4917
:1053000042F001029A602B4A1268B2FBF1F202EB02
:1053100042020192019A002AE4D0019A013AF8E788
:10532000026C22F4E06222F0010242F48072026414
:105330005A68520541BF026C22F4405242F4805236
:105340000264026C12F480521CBF426C22F006020E
:105350004264002280F83C206FF022021A60164A54
:10536000516811F01F0F15491CD18B4207D001F570
:1053700080718B420CD1526812F01F0F0BD19A68CA
:1053800012F0405F07D19A6842F080429A6002E0D2
:105390000B498B4202D0002002B07047526812F0D5
:1053A000100FEBE78B42F6D1E9E70220F4E700BFEC
:1053B00040420F00840000200023014000200140F3
:1053C0000022014090F83C30012B14D003689A6809
:1053D00022F001029A609B68DB0707D4036C23F478
:1053E000885323F0010343F001030364002380F892
:1053F0003C30184670470220704703689A6852058F
:1054000070B504460D460BD59B68DE0508D5036CC8
:1054100043F020030364002380F83C30012070BD7A
:10542000FFF792FE064623681A6891070CD56FF0C5
:1054300012021A60226C42F4007222649A6812F01E
:10544000405F17D00020EAE7681CEDD065B92368FB
:105450001B6813F00203E6D1226C84F83C3042F062
:10546000040222640320DAE7FFF76EFE801BA842E5
:10547000EDD8D8E7227E002AE4D1DA6A12F4700F60
:1054800002D09B685A05DDD4236C23F48073236417
:10549000236CDB04D6D4236C43F001032364D1E7EF
:1054A0000368D86C70470000F7B50023019390F8AB
:1054B0003C30012B054600F08680012380F83C300B
:1054C00008682B688E68092884B233D904EB44023B
:1054D000DF681E3A4FF0070C0CFA02FC27EA0C07B3
:1054E000DF60DF6806FA02F23A43DA6049680629AB
:1054F00001EB81022DD8596B053A1F26964021EA0F
:1055000006015963596B04FA02F20A435A632F4A9F
:1055100093420AD1122837D12D4B5A6822F4000247
:105520005A605A6842F480025A60002085F83C00B4
:1055300003B0F0BD1A6900EB400C072707FA0CF71F
:1055400022EA07021A611A6906FA0CF616431E616E
:10555000CCE70C294FF01F010BD81E6B233A91406A
:1055600026EA01011963196B04FA02F20A431A636D
:10557000CDE7DE6A413A914026EA0101D962D96A53
:1055800094400C43DC62C2E7124B984201D01128D0
:10559000CBD10F4B5A6822F480025A605A6842F409
:1055A00000025A600B4B9842BFD10B4B0B4A1B6851
:1055B000B3FBF2F30A2253430193019B002BB4D0B7
:1055C000019B013BF8E70220B2E700BF0020014049
:1055D00000230140120000108400002040420F0010
:1055E0000749CA6822F4E0620302120403F4E0638C
:1055F000120C134343F0BF6343F40033CB60704796
:1056000000ED00E0164B30B5DC68C4F30224C4F1B1
:105610000703251D042B28BF0423062D4FF0FF355B
:105620008CBF033C002405FA03F321EA0303A540E1
:1056300022EA0502A340002843EA0203ACBF00F1BE
:105640006040084A4FEA0313B8BF00F00F00DBB216
:10565000AABF00F56140135480F8003330BD00BF8D
:1056600000ED00E014ED00E0002807DB044A4109EA
:10567000012300F01F00834042F82130704700BF33
:1056800000E100E010B5044650B1437903F0FF0299
:1056900013B90271FCF78AFC01236371002010BD6D
:1056A0000120FCE710B5044620B390F8393003F030
:1056B000FF021BB980F83820FCF790FC022384F825
:1056C0003930236861681A6822F440320A431A604C
:1056D0005A6BA16822F007020A435A631A6CE16808
:1056E0006FF30D020A431A6400200123E06384F87B
:1056F000393010BD0120FCE770477047036870B572
:105700005E681D68F207044614D5E90512D51A68CB
:1057100022F480721A60C26B42F00102C26301225D
:105720009A60042380F83930002380F838304369C8
:1057300003B19847B20616D5AB0414D523681A688E
:1057400022F400521A6020229A60E36B43F00203B5
:10575000E363042384F83930002384F83830636924
:105760000BB120469847300716D5290514D5236874
:105770001A6822F400621A6008229A60E36B43F010
:105780000403E363042384F83930002384F83830B9
:1057900063690BB12046984772070BD56B0509D595
:1057A00023681A6822F480621A6004229A602046F4
:1057B000FFF7A2FFB00714D5A90512D523681A6810
:1057C00022F400721A6002229A60E36BE363012301
:1057D00084F83930002384F8383023690BB120462F
:1057E0009847F20613D5EB0411D523681A6822F402
:1057F00080521A6010229A60E36BE363012384F8FD
:105800003930002384F838302046FFF776FF70BD2A
:10581000F0B590F83820012A03464FF002002BD053
:10582000012283F8382083F8390003EB0112D2E912
:105830000740556A174F44EA0040093C012C9CBFC1
:1058400005F07F4210434FEA01161A6888BF40EA0C
:10585000056091B9516A394001435162012C99693F
:10586000916103D8596A21F07F41916201220020A1
:1058700083F8392083F83800F0BDD16939400143FD
:10588000D1619919012C896911619CBF25F07F456F
:105890001562EBE7F0FFFC002DE9F74FDFF8BC9154
:1058A0006C4A00230D6801249C4004EA0506AC43C1
:1058B00040F0B7804D68032705F003044FEA430822
:1058C00007FA08FC671E012F6FEA0C0C34D88768B2
:1058D00007EA0C0ECF6807FA08F747EA0E07876059
:1058E000476827EA060EC5F300179F4047EA0E07F0
:1058F0004760C76807EA0C0E8F6807FA08F747EA9F
:105900000E07022CC76019D14FEAD30A00EB8A0AAE
:1059100003F0070BDAF820704FEA8B0B4FF00F0EF5
:105920000EFA0BFE27EA0E0E0F6907FA0BF747EA8D
:105930000E07CAF8207001E0032CDAD1076804FAD8
:1059400008F407EA0C073C4315F4403F046068D0B4
:1059500000240194D9F8444044F48044C9F84440F8
:10596000D9F8444023F0030707F1804704F480444A
:1059700007F59C37019403F0030C019CD7F808E06D
:105980004FEA8C0C0F2404FA0CF42EEA040E324C6D
:10599000A0424DD004F58064A0424BD004F5806451
:1059A000A04249D004F58064A04247D004F5806449
:1059B000A04245D004F58064A04243D004F5806441
:1059C000A04241D004F58064A0423FD004F5806439
:1059D000A0423DD004F58064A04214BF0A240924EB
:1059E00004FA0CF444EA0E04BC609468F74315F41E
:1059F000801F0CBF3C4034439460D46815F4001FF2
:105A00000CBF3C403443D460546815F4003F0CBFD5
:105A10003C40344354601468ED0354BF3C4034436D
:105A200014600133102B7FF43DAF03B0BDE8F08F5D
:105A30000024D5E70124D3E70224D1E70324CFE7EC
:105A40000424CDE70524CBE70624C9E70724C7E7EC
:105A50000824C5E7003C0140000002400038024035
:105A60000369194214BF0120002070470AB1816107
:105A700070470904FBE7436901EA030221EA0301D5
:105A800041EA02418161704701684B6913F4806308
:105A90004FF0000210D06FF480634B61202302634B
:105AA00080F83D3080F83E20036C80F83C2043F0C5
:105AB0000403036401207047184670472DE9F84637
:105AC00006460F4691461D464FEA114A3368BAF121
:105AD000010F0CBF5C699C6927EA0404A4B2B4FA04
