:020000040800F2
:1000000000000320BD050008511F0008531F000811
:10001000551F0008571F0008591F00080000000066
:100020000000000000000000000000002177000830
:100030005B1F000800000000B1770008DD6F0008BA
:100040000D0600080D0600080D0600080D06000844
:100050000D0600080D0600080D0600080D06000834
:100060000D0600080D0600080D0600080D06000824
:100070000D0600080D0600080D0600080D06000814
:100080000D0600080D0600080D0600080D06000804
:100090000D0600080D0600080D0600080D060008F4
:1000A0000D0600080D0600080D0600080D060008E4
:1000B0000D0600080D0600080D0600080D060008D4
:1000C0000D0600080D0600080D0600080D060008C4
:1000D0000D0600080D0600080D0600080D060008B4
:1000E0000D0600080D0600080D0600080D060008A4
:1000F0000D0600080D0600080D0600080D06000894
:100100000D0600080D0600080D0600080D06000883
:100110000D0600080D0600085D1F00080D0600080A
:100120000D0600080D0600080D0600080D06000863
:100130000D0600080D0600080D0600080D06000853
:100140000D0600080D0600080D0600080D06000843
:100150000D0600080D0600080D0600080D06000833
:100160000D0600080D0600080D0600080D06000823
:100170000D0600080D0600080D060008000000002E
:100180000D0600080D0600080D0600080D06000803
:100190000D0600080D0600080D0600080D060008F3
:0C01A000691F00080D060008751F00080C
:1001B00010B5054C237833B9044B13B10448AFF3A1
:1001C00000800123237010BD6C010020000000009E
:1001D00030E6010808B5034B1BB103490348AFF3F0
:1001E000008008BD000000007001002030E601081A
:1001F00001F0FF01102A2BDB10F0070F08D010F8D8
:10020000013B013A8B422DD010F0070F42B3F6D1DB
:10021000F0B441EA012141EA014122F007047FF0F4
:1002200000070023F0E80256083C85EA010586EA4B
:10023000010685FA47F5A3FA87F586FA47F6A5FA87
:1002400087F68EB9EED1F0BC01F0FF0102F0070293
:1002500032B110F8013B013A83EA010313B1F8D13E
:100260000020704701387047002D06BF354603381F
:10027000073815F0010F07D1013015F4807F02BF58
:10028000013015F4C03F0130F0BC0138704700BFA9
:1002900053B94AB9002908BF00281CBF4FF0FF31ED
:1002A0004FF0FF3000F088B9ADF1080C6DE904CED5
:1002B00000F006F8DDF804E0DDE9022304B0704741
:1002C0002DE9F047089D8E4604468846002B4AD10A
:1002D0008A42174662D9B2FA82F64EB1C6F12003BD
:1002E00001FA06F820FA03F3B74043EA0808B440DD
:1002F0004FEA174E1FFA87FCB8FBFEF1230C0EFBEA
:10030000118843EA084301FB0CF29A4209D9FB1811
:1003100001F1FF3080F0EA809A4240F2E780023932
:100320003B449A1AA3B2B2FBFEF00EFB102243EA42
:10033000024300FB0CFC9C4509D9FB1800F1FF327D
:1003400080F0D6809C4540F2D3803B44023840EA9E
:100350000140A3EB0C0300211DB1F3400022C5E9CD
:100360000032BDE8F0878B4205D90DB1C5E9000127
:1003700000210846F5E7B3FA83F1002946D1734519
:1003800002D3824200F20581841A6EEB030201203F
:100390009046002DE5D0C5E90048E2E7002A00F0CC
:1003A0009080B2FA82F6002E40F0A4808A1A030CE4
:1003B0004FEA174E80B2BCB20121B2FBFEFC0EFB2D
:1003C0001C2243EA024304FB0CF29A4207D9FB18B1
:1003D0000CF1FF3802D29A4200F2E080C4469B1A28
:1003E000B3FBFEF20EFB123340EA034302FB04F4BC
:1003F0009C4207D9FB1802F1FF3002D29C4200F266
:10040000CA8002461B1B42EA0C40A5E7C1F1200648
:100410008B4022FA06F71F430EFA01F420FA06F386
:100420002EFA06FE4FEA1749234300FA01F81FFA95
:1004300087FCBEFBF9F01C0C09FB10EE44EA0E44ED
:1004400000FB0CFEA64502FA01F209D93C1900F1A5
:10045000FF3A80F09C80A64540F2998002383C44E7
:10046000A4EB0E041FFA83FEB4FBF9F309FB13445B
:100470004EEA044403FB0CFCA44508D93C1903F1E3
:10048000FF3E80F08280A4457FD9023B3C4443EA92
:100490000040A4EB0C04A0FB02EC64457346E1466B
:1004A00062D35FD05DB1B8EB030264EB090404FAD8
:1004B00006F622FA01F31E43CC40C5E90064002190
:1004C0004FE7B1FBF2FC010C41EA0E4180B240EA79
:1004D00001423B4638463C46B846BE462026B1FB64
:1004E000F7F1A2EB080241EA0C4166E7014618E782
:1004F00010462CE7C6F120022EFA02F3B740B140B5
:1005000020FA02F24FEA174E0A43B3FBFEF8BCB2E0
:100510000EFB1833110C41EA034108FB04F9B0400B
:1005200089454FEA104380B23ED9791808F1FF3C63
:1005300001D289451FD8A1EB0901B1FBFEF909FBE6
:1005400004F80EFB191192B242EA0142424529D247
:10055000BA1809F1FF31C4D24245C2D2A9F1020151
:100560003A44BEE7F0459DD2BEEB02036CEB070CAC
:100570000138E14696E7A7EB09094944A8F1020CC6
:10058000B1FBFEF909FB04F8DBE773467FE7504651
:1005900066E70846FDE63B44023A33E7ACF1020C5D
:1005A0003B441CE749469CE7A1EB0901C446B1FB6B
:1005B000FEF909FB04F8C4E7704700BFDFF834D048
:1005C000002103E00C4B5B58435004310B480C4BAB
:1005D00042189A42F6D30B4A02E0002342F8043B49
:1005E000094B9A42F9D304F0CDF81DF0B3FA00F0AC
:1005F00033FF704700000320AC56050800000020C0
:100600006C0100206C010020B83E0120FEE700F0E4
:10061000BBBC00F029BD704710B5042104461CF096
:10062000BBFF204610BD000038B50C4B0C4C1880A9
:100630000C4B822019806368984740F6110398425A
:100640000AD1094D23682C60822098472B688220AC
:10065000DB689847002038BD0120FCE792010020AC
:100660005400002090010020940100204FF4A0715C
:10067000F020FFF7D9BF0000F7B5354D2B680446D1
:100680001B6982209847208000284BD02B680DF1F1
:1006900006025B6901A982209847BDF8063040F642
:1006A0007462934240D9ADF80620BDF80630D21AE4
:1006B00092B20A2A3ED90B23B2FBF3F2254B1B88D8
:1006C0009A4201D9013B9AB2BDF80430224840F663
:1006D000B8318B4230D8C3F571630E3301689BB2D9
:1006E0000F25B3FBF5F31D4D2D88AB4284BF05F1FB
:1006F000FF35ABB28B421D468EB226D99B1B99B2F9
:10070000174E3768BBB2BA428CBFD31A9B1A9BB242
:1007100019440529C8BF05600368C8BF32606380FB
:100720003368A38003B0F0BDB32B9CBFB423ADF8F6
:100730000630BAE70022C7E7C3F56D6308339BB202
:100740000E2B0168CCD800252B46C91A89B2D7E7F1
:1007500094010020900100208C01002092010020D3
:100760008801002037B568460D461446FFF784FF20
:10077000BDF8000030B1BDF802302B60BDF8043088
:100780002360012003B030BD032821D8DFE800F04A
:10079000020B12190F4B1A68B2FA82F252090421A5
:1007A0000D4804F0B7BC0B4B5A68B2FA82F25209FA
:1007B0000821F5E7074B9A68B2FA82F25209102134
:1007C000EEE7044BDA68B2FA82F252092021E7E739
:1007D000704700BF9801002000100240032821D874
:1007E000DFE800F0020B12190F4B1A68003A18BF2D
:1007F000012204210D4804F08DBC0B4B5A68003ACD
:1008000018BF01220821F5E7074B9A68003A18BF84
:1008100001221021EEE7044BDA68003A18BF0122EA
:100820002021E7E7704700BF980100200010024038
:1008300003280DD8DFE800F00206080A0421054865
:1008400004F06DBC0821FAE71021F8E72021F6E753
:10085000704700BF0010024008B5032811D8DFE838
:1008600000F0020A0C0E0421074804F04DFC431E60
:100870005842584108BD0821F6E71021F4E720212D
:10088000F2E70020F3E700BF0010024070B5084D0A
:1008900000240126E0B2FFF7DFFF18B12B68012B1F
:1008A00018BF2E600134052C05F10405F2D170BD8E
:1008B00098010020012380F8781080F87930704783
:1008C00000207047034B4164003918BF01211970A3
:1008D000704700BF8732012000207047836B0BB147
:1008E0000846184770474FF6FF7070474068036826
:1008F0009B691847704770477047000070B5044601
:1009000000F052FC2368D3F88850044BD4E90F124E
:100910002046AC46BDE87040604700BF000000D0F4
:1009200008B503680446D3F880309847236820460A
:100930009B6F984700F0ECF8236820461B6F9847A0
:10094000292001F037F800F0E3F8236820461B6FF8
:100950009847F8E710B5044609F054FD236820468F
:10096000D3F8AC30BDE81040184700F00FBC00F0E1
:1009700013BC00F03FBC00F0E5BB00F03FBC00F052
:1009800047BC00F0E9BB08F0A9BF10B57C210446C4
:100990001CF002FE204610BD10B590F8341090F8FF
:1009A00078400C4B8C421A7809D03AB90A4A0B4964
:1009B0001488088810800C8001221A7010BD002A4B
:1009C000FCD0054A05491488088810800C80002254
:1009D000F3E700BF803201207C3201207E3201200B
:1009E00070B50D46194635B9094B0A4A0A4840F216
:1009F000D2211CF0FFFDC0E90F52084B003A18BF8E
:100A000001221A700368BDE87040D3F88C30184793
:100A1000A0E60108D8E6010826E701088632012091
:100A200008B5094B1B888B4203D8084B1B8893429F
:100A300005D9074B074A08489E211CF0DBFD074BF0
:100A40001980074B1A8008BD7C3201207E320120BC
:100A50006BE70108CEE7010826E701088232012092
:100A600084320120034690F87A0018B15868036870
:100A70001B68184770470000012108B5002208468E
:100A800006F04EFB0A4B186028B90A4B0A4A282187
:100A90000A481CF0AFFD00220421012006F0E8FB0B
:100AA000074B186018B9074B034A2C21F0E708BD23
:100AB000AC01002011E801085AE8010889E80108A2
:100AC000A8010020D4E80108024B4FF0FF3118685C
:100AD00006F070BBAC010020014B186806F096BB15
:100AE000AC010020024B0021186806F063BB00BF78
:100AF000AC010020FFF7F0BF034804490068002361
:100B00001A4606F0F0BB00BFA80100200400002038
:100B100013B5084C00231A4601A9206806F014FCFE
:100B200020684FF0FF33002201A906F00DFC02B04F
:100B300010BD00BFA801002003685B6C18470120AE
:100B4000704703689B6A184782B0002301930D4BDE
:100B50001A6B42F400021A631A6B02F4000201924B
:100B6000019A1A6942F400021A611A6922F4000219
:100B70001A61054B054A1A61054B4FF080629A6075
:100B800002B0704700380240B41E0020210E000859
:100B900000E100E040F2EF3070470000054B0360D9
:100BA000054B4FF08062C3F88820BFF34F8FBFF32F
:100BB0006F8F7047FCF3010800E100E010B50446B8
:100BC0004FF45A61FFF7EAFF20461CF0E5FC20468F
:100BD00010BD000008B50A2809D8DFE800F00610AB
:100BE0000E080808081010101000022008BD054B60
:100BF000054A064887211CF0FDFC0020F6E701208D
:100C0000F4E700BF16E9010831E901087CE90108B1
:100C100038B50C46887FFFF7DDFFA58AE28A164BC0
:100C20002169586342EA05425A64628BD963521BB8
:100C30001A642568082D0ED19A611A615862207FC6
:100C40000E4A42EA0062DA61E2681A620C4A5961AD
:100C5000D9601A6038BD0022D8611A61E1680A0AB9
:100C6000480902F4784200F4FC600243C1F3C40175
:100C70000A439A63034AECE700B00240090001000E
:100C8000010202000102030008B50B280BD8DFE8BF
:100C900000F00612100A0A0A0A08080808080220CA
:100CA00008BD0520FCE7054B054A064866211CF0F7
:100CB000A1FC0020F4E70120F2E700BF16E90108DB
:100CC000C5E901087CE901082DE9F04191F81D8092
:100CD0000C464046FFF7D8FFA77F05463846FFF78A
:100CE000D3FF06463846FFF775FFA18A628B444B57
:100CF000521A1A649A61228B521A1A61E28A586354
:100D000042EA01425A6421696268D963DA60206864
:100D1000802828D0227F0FD8202867D0402865D08F
:100D200004281AD0364B45EA026545F40035B8452B
:100D3000DD6161D0334A44E0B0F5807F04D0B0F586
:100D4000007FEFD1304800E0304840EA0262DA61CB
:100D5000E2681A625E62596132E045EA026242F478
:100D60000032DA61F6E7A068021DDA62227F45EA06
:100D7000026545F40035DD615E625961017841B17B
:100D8000012921D0224B234A234840F211111CF0A3
:100D900031FCDA69418822F47F42013922F01002E5
:100DA00042EA0122DA610121154BDA6942F02002A0
:100DB000DA61DA699206FCD410229A600029B9D06F
:100DC000164A1A60BDE8F081B2F1FF01DA69408885
:100DD00022F47F4200F1FF3022F0100242EA0022AA
:100DE00042F0100218BF0121DA61DDE745EA026234
:100DF000034B42F40032B4E740F20122E1E700BFC6
:100E000000B0024001020100090002000A000200D5
:100E10000FEA010829EA01087CE901080102020041
:100E2000024B1B68586803685B69184788320120C9
:100E300070B5044625460A4B0C30002660602672C9
:100E4000667245F8203B6022294609F019FC04F53A
:100E50005A63EE6024359D42FBD1204670BD00BF31
:100E6000FCF30108012070474020704700EB81101F
:100E70000830704700EB8110083070470120704740
:100E800040F68820704740F6882303FB01000830B5
:100E9000704740F6882303FB0100083070470120AB
:100EA00070471020704700EB01100830704700EBCE
:100EB000011008307047084601F0E0BA10B5034B46
:100EC0000360044608F061FA204610BDB4F401083E
:100ED00010B50446FFF7F2FF204648211CF05CFBEA
:100EE000204610BD10B5034B0360044608F04DFAD0
:100EF000204610BD80F4010810B50446FFF7F2FF4C
:100F000020464FF429611CF047FB204610BD00002D
:100F100010B5034B0360044608F037FA204610BDB5
:100F20004CF4010810B50446FFF7F2FF20461821E3
:100F30001CF032FB204610BD10B5084B0360044680
:100F400000F6BC20FFF7BAFF04F12C00FFF7CAFF40
:100F500004F11400FFF7DCFF204610BDE8F401089F
:100F600008B50248FFF7E8FF08BD00BF5C1000208D
:100F700010B50446FFF7E0FF204640F664411CF040
:100F80000BFB204610BD00002DE9F34101F06CF889
:100F9000054601F06DF80024014623462846224606
:100FA00000940EF08DFE254B254A264D1A602046F2
:100FB00002F098F924480EF0EBFD2B68BFF35B8F2D
:100FC000DB0735D428461CF0E9FA88B31F4C204BC8
:100FD000236004F6083604F1140004F12C0804F62A
:100FE000BC276060C4F80880E760266108F0CEF98D
:100FF000184B6361404608F0C9F9174BE362384665
:1010000008F0C4F9154BC4F8BC3A04F6043002F0F9
:101010006DFD224604F60431304602F0D9F930461F
:1010200001F02CFA0E481CF003FB28461CF0C2FA13
:101030000C4802B0BDE8F041FFF760BCE43201208B
:101040002C02002058100020080000205C10002016
:10105000E8F401084CF4010880F40108B4F4010834
:10106000610F0008B00100200148FFF759BC00BF24
:10107000B001002070B5224E224C234D234B23603B
:101080003046FFF7D5FE284613F0E6F8204B2148FE
:10109000DC6000224FF48071C3E912121E491A86E7
:1010A000C3E91A121D4999671D4983F858200B603E
:1010B000F02101801B485A6601801B4883F870208C
:1010C0004FF4A071C3E90422C3E90622C3E9082250
:1010D000C3E90A22C3E90E22C3E91022C3E914229C
:1010E000C3E917225A67C3E9016501800F480180EF
:1010F0000F490A70012283F834200E4A1A6070BD2D
:10110000B4020020541000203002002090E60108B4
:10111000B00100207C32012001000001000001012B
:1011200088320120823201207E3201208432012067
:101130008032012024F301080148FFF72FBD00BFD2
:10114000B4020020034B902283F85A2383F85823DB
:10115000704700BF00E100E0094A0A49D3680A4825
:10116000C3F30A03013B9BB20B801169C1F30A016F
:10117000013901801364536B43F0010353637047DB
:1011800000680140C21C0020C01C0020014BD3F8A5
:10119000AC00704700680140024B0122C3F8AC105C
:1011A0005A6270470068014070B5044608F0EBFBD6
:1011B00023685D6E0BF0D8FC01462046A8472368E3
:1011C000054AD3F888502046AC460023BDE870405D
:1011D000A2F51631604700BF00B004D008F0BABBDA
:1011E00090F84B3013B1024B01221A7008F0BEBBCD
:1011F000C41C002008F078BB08F0D9BC034B4FF0AA
:1012000080629A604FF080729A60704700E100E05F
:10121000084B4FF08062C3F88820BFF34F8FBFF3B5
:101220006F8F4FF08072C3F88820BFF34F8FBFF3EA
:101230006F8F704700E100E010B5144C236823B3B2
:10124000134B144A1B6C11888B4213D1124B198813
:1012500004F044FD226892F86A30013382F86A3063
:10126000FFF74AFC206809F0CDF8BDE810400020E7
:10127000FFF78ABA04F032FD206803681B6A9847BA
:10128000BDE810400020FFF7A9BA10BD8832012048
:1012900000680140C21C0020C01C002007B5064B9E
:1012A000ADF806001B68054801220DF1060105F0A6
:1012B00063FA03B05DF804FB0C000020601D002001
:1012C0002DE9F341394C3A4F204603F051FB0A21F6
:1012D000204603F0E6FB18B9204603F035FC05462E
:1012E0000A21204603F0DDFB18B9204603F02CFC50
:1012F0000646204603F0BAFB386806F055F8024669
:1013000060B940F6B8339D4294BF4E2352238DF806
:1013100004303868642301A905F0E5FFDFF8948004
:10132000D8F8000006F040F8024668B9B5F57A7FB3
:101330002CBF4E234C238DF80530D8F800006423D1
:101340000DF1050105F0CFFFDFF86C80D8F8000043
:1013500006F02AF8024668B9B6F57A7F2CBF4E230C
:1013600055238DF80630D8F8000064230DF10601EE
:1013700005F0B9FFDFF84480D8F8000006F014F853
:10138000024670B940F6B8339E4294BF4E234423C0
:101390008DF80730D8F8000064230DF1070105F03F
:1013A000A2FF642005F0B0FE8EE700BFE41C002021
:1013B000D81C0020D41C0020D01C0020CC1C0020F5
:1013C00030B595B0102200210AA81CF01AFB142297
:1013D000002103A81CF015FB00241D4B01941A6C7E
:1013E00042F080521A641B6C03F080530193019BFE
:1013F000184B02941A6842F440421A601B6803F4C6
:10140000404302930122029B4FF48033CDE908232D
:1014100002254FF48003CDE90E5308214FF4A87341
:10142000CDE9101308A804231393129504F074FC5B
:101430000F23CDE903354FF4A0504FF48053CDE98D
:101440000603052103A8059404F042FE15B030BD43
:1014500000380240007000402DE980489BB0002415
:10146000C54DC64F03F09CF9FFF7AAFF14220021D7
:101470000DA81CF0C6FA00942B6BC14843F0100372
:101480002B632B6B03F010030093009B01942B6BD9
:1014900043F020032B632B6B03F020030193019B8C
:1014A00002942B6B43F080032B632B6B03F08003C0
:1014B0000293029B03942B6B43F004032B632B6B6F
:1014C00003F004030393039B04942B6B43F0010389
:1014D0002B632B6B03F001030493049B05942B6B8C
:1014E00043F002032B632B6B03F002030593059B70
:1014F00006942B6B43F040032B632B6B03F04003EC
:101500000693069B07942B6B43F008032B632B6B0E
:1015100003F00803079322463C21079B03F0FAFDE2
:1015200098482246042103F0F5FD224696484FF4E0
:101530004051012603F0EEFD4FF0030A3C23904892
:10154000CDF840A00DA94FF002084FF0040BCDE9F3
:101550000D360F9403F0F4FC8A480F940DA9CDE9E1
:101560000DB6CDF8408003F0EBFC4FF440538648B5
:101570000DA9CDE90D36CDE90F4803F0E1FC834814
:101580000F940DA9CDE90DAA03F0DAFC0DA97C4852
:10159000CDE90DB4CDE90F6403F0D2FC7C487D4B5E
:1015A000036003F0C3FB7C4A7C4B3C62C7E9002329
:1015B00038464FF48043C7E90434C7E90244C7E919
:1015C000064403F099FF1021384604F0D5F921466E
:1015D000384604F0F0F97248724984624FF482731D
:1015E000C0E900134FF400771823C0E906730A23FB
:1015F0006D4FC362C0E90244C0E90444C0E9084435
:1016000005F05EF8694BCDF834804FF0100CC7E957
:1016100000364023C7E904C34FF4C073C7E906345A
:101620004FF40063C7E908344FF40053BB620DA9BF
:1016300007233846CDE90E3BCDE9103A4FF00809B3
:10164000C7E9024BCDE9128804F036FF4FF6FF726E
:1016500009A93846CDE90A96089409960C9404F035
:101660004BFF304603F0C8F84FF6FF7209A9384621
:10167000CDE90989CDE90B6404F03EFF4FF6FF7216
:1016800009A93846CDE909A9CDE90BB404F034FF26
:101690004FF40C720892089A0C9209A94FF6FF7247
:1016A0003846CDE909B90B9604F026FF40F26A519D
:1016B000384604F03FFF342221460DEB02001CF0B7
:1016C000A0F93B4F3B4A3C61C7E900240922C7E926
:1016D00005261D2240F20D1EC7E9072A40F24312DB
:1016E000C7E909E2384640F2471240F2171AC7E943
:1016F0000BA2C7E90244BC8687F8364004F0F6F92D
:10170000FF20F0214FF4A072CDE912044FF4806B5A
:101710000520CDE90E14CDE91028CDE914B0CDE9AE
:10172000164118920DA9224638460D94224FADF865
:1017300064408DF8664004F0A4FA204A3A601268CA
:1017400090473A681E4FD26890471E4A3846C7E90C
:101750000024C7E90284C7E90A48C7E90C4403F03A
:10176000F5FA3146384603F0A7FB09946A6C42F457
:1017700080726A646A6C27E000380240601E0020B4
:101780000010024000080240000C0240000002402D
:10179000F41E002000300240005C0040A0860100E2
:1017A000601D0020005001402C1D0020400100A0C1
:1017B000B81D002000680140C81C00201C0000204B
:1017C000B41E002000B002402E4D02F48072099237
:1017D0002146099A0DA810221CF013F92A4BAC607F
:1017E0004FF480322846C5E900322E612C7685F808
:1017F0002040EC62EC60C5F81C8085F830406E61DA
:1018000003F010F807230DA928460F93CDE90D46E4
:1018100003F09EF90DA92846CDE90D6803F098F96B
:10182000FEF7F5FE05F0E8FB184A3146484605F09C
:101830001FFD174B174A18603146484605F018FD42
:10184000154B164A18603146484605F011FD144BF9
:10185000144A18603146484605F00AFD124B134AF7
:1018600018602146124805F0F3FB124B124A18602B
:101870002146124805F0ECFB114B186005F0CEFB39
:10188000FEE700BFE41C0020002001403CF50108F9
:10189000D81C002024F50108D41C00200CF50108F8
:1018A000D01C0020F4F40108CC1C002078F50108BD
:1018B000C1120008E01C002054F5010813060008BE
:1018C000DC1C0020704770477FB5094B8DF817204E
:1018D0001B6802930DF117020123009201930A463F
:1018E0000146044803F0B0FE07B05DF804FB00BFFA
:1018F00010000020601E00207FB500238DF81730F7
:10190000084B1B6802930A4601230DF11701009151
:1019100001930146044803F027FF9DF8170007B024
:101920005DF804FB10000020601E00201FB5084C6D
:1019300024680092CDE901340A4601230146054896
:1019400003F012FF003818BF012004B010BD00BF23
:1019500010000020601E002002F04EBF10B5064CA3
:1019600000222046042103F0D5FB20460122BDE8D9
:101970001040042103F0CEBB0008024038B50B4DE7
:10198000044601220A484FF4005103F0C3FB002231
:101990000421284603F0BEFB2046FFF77FFC2846C3
:1019A0000122BDE83840042103F0B4BB0008024026
:1019B000000C024038B50B4D044600220A484FF493
:1019C000005103F0A7FB00220421284603F0A2FBEC
:1019D0002046FFF763FC28460122BDE83840042179
:1019E00003F098BB00080240000C0240F7B5144E0B
:1019F000144F05460C4630460022042103F08AFBB2
:101A000000224FF40051384603F084FB2846FFF7CC
:101A100045FC0D4B0D481B68224601A905F049F80D
:101A2000384601224FF40051019C03F073FB30460D
:101A30000122042103F06EFB204603B0F0BD00BF7D
:101A400000080240000C02400C000020601D002035
:101A500002F0D2BE0268034B9A4201D102F0BABE34
:101A6000704700BF001000407047000082B00E4B6E
:101A700000220092596C41F480415964596C01F480
:101A80008041009100990192196C41F080511964D4
:101A90001B6C03F080530193019B0F216FF0010039
:101AA00002B003F003B900BF003802400268094BDE
:101AB0009A4282B00BD100230193074B1A6B42F478
:101AC00080521A631B6B03F480530193019B02B095
:101AD000704700BF003002400038024007B50F4B8E
:101AE00002689A4216D10022A3F5F0430192196BC5
:101AF00041F4000119631B6B03F4000301930521FA
:101B00005A20019B03F0D2F85A2003B05DF804EB91
:101B100003F0FEB803B05DF804FB00BF00B0024064
:101B20002DE9F043044689B01422002103A81BF0DC
:101B300068FF2268244B9A4243D1244C2448002554
:101B40000095236B43F004032363236B03F004032A
:101B50000093009B0195236B43F001032363236BE8
:101B600003F001030193019B4FF012094FF400733E
:101B70004FF001080327042603A9CDE90339CDE975
:101B80000587079603F0DCF94FF480731148079638
:101B900003A9CDE90339CDE9058703F0D1F9029511
:101BA000236C43F400032364236C03F400030293C7
:101BB000029B236A43F400032362236A23F4000395
:101BC000236209B0BDE8F083005C004000380240A9
:101BD0000008024000000240F0B599B0044614220B
:101BE000002107A81BF00DFF30220DEB02000021A1
:101BF0001BF007FF22685E4B9A4240F0B780082333
:101C00000C93C0231093042312930CA84FF40033B9
:101C1000159304F025FB08B1FFF726FF554B5648F6
:101C2000002400945A6C42F080625A645A6C02F0AC
:101C300080620092009A01941A6B42F020021A63AB
:101C40001A6B02F020020192019A02941A6B42F080
:101C500001021A631A6B02F001020292029A0394C3
:101C60001A6B42F002021A631A6B02F0020203922C
:101C7000039A04941A6B42F040021A631A6B02F042
:101C800040020492049A05941A6B42F004021A630B
:101C90001A6B02F004020592059A06941A6B42F040
:101CA00008021A631B6B03F00803069302250E2635
:101CB000069B0B964FF4806307A9CDE90735CDE964
:101CC000094503F03DF941F658032C480B9607A946
:101CD000CDE907350927CDE9094503F031F903239B
:101CE00027480B9707A9CDE90735CDE9094503F04A
:101CF00027F94FF4706322480B9607A9CDE9073501
:101D0000CDE9094503F01CF94FF40C631D480B960F
:101D100007A9CDE90735CDE9094503F011F9C0233D
:101D200019480B9607A9CDE90735CDE9094503F018
:101D300007F9082315480B9607A9CDE90735CDE922
:101D4000094503F0FDF84FF4A0530E480B9707A97F
:101D5000CDE90735CDE9094503F0F2F858202246D0
:101D6000052102F0A3FF582002F0D2FF19B0F0BD08
:101D700000680140003802400014024000000240A8
:101D8000000402400018024000080240000C02401B
:101D900010B5044688B01422002103A81BF031FEC0
:101DA0002268144B9A4223D103F568430021019124
:101DB0005A6C114842F480125A645A6C02F4801230
:101DC0000192019A02911A6B42F020021A631B6B76
:101DD00003F020030293029B4FF46072022303215D
:101DE000CDE903230523CDE9061303A903F0A8F8E1
:101DF00008B010BD00500140001402402DE9F04130
:101E000086B0002303932B4B1C68002C4FD14FF05E
:101E10000108C3F80080284B00949A6B274842EAD7
:101E200008029A639B6B03EA0803009302270326C8
:101E30000C25009B01A94FF63F03CDE90137CDE901
:101E4000046503F07DF81E48059501A9CDE90187D9
:101E5000CDE9034603F074F848F2331319480595A9
:101E600001A9CDE90137CDE9034603F069F84FF642
:101E700083731548059501A9CDE90137CDE90346DE
:101E800003F05EF84CF203731048059501A9CDE903
:101E90000137CDE9034603F053F860230C4805955C
:101EA00001A9CDE90137CDE9034603F049F806B0B1
:101EB000BDE8F081FC1E0020003802400014024002
:101EC000000802400018024000100240000C0240CE
:101ED0000004024030B5014689B00022362002F0ED
:101EE000E5FE362002F014FF0025154B02951A6C12
:101EF000144C42F010021A641B6C03F0100302939E
:101F000001A903A8029B04F08DF904F07BF90E4BA4
:101F1000236040F2E733E36040000C4BB0FBF3F08A
:101F20000138606020462561A56004F091FF20B96A
:101F3000204604F05DFE09B030BD0120FBE700BF84
:101F400000380240001F00200010004040420F00F7
:101F50007047FEE7FEE7FEE7FEE77047014804F042
:101F600085BE00BF001F0020014803F02DBE00BF4A
:101F7000B81D0020014802F015BF00BFB41E0020AC
:101F80000120704708B51BF0DFFD162303604FF0FA
:101F9000FF3008BD08B51BF0D7FD16230360FEE730
:101FA00070B50D4614460E46731B9C4201DC20465C
:101FB00070BDAFF3008006F8010BF5E770B50D4674
:101FC00014460E46731B9C4201DC204670BD16F879
:101FD000010BAFF30080F5E74FF0FF3070474FF48F
:101FE00000534B600020704701207047002070476D
:101FF0000A4A116808B5034609B909491160106811
:10200000694603448B4206D91BF09EFD0C230360F6
:102010004FF0FF3008BD1360FCE700BF481F0020F1
:10202000B83E0120704710B5042104461BF0B4FAF5
:10203000204610BD08B5032913D8DFE801F00206D9
:102040000A0E01F09BF9006808BD01F097F940689D
:10205000FAE701F093F98068F6E701F08FF9C068BC
:10206000F2E70020F0E7000000487047B0F50108F3
:102070001120704713B5002451B1036801948DF805
:10208000034001AA9C680DF10303A04702B010BDF4
:102090000846FBE7C0897047008A7047C0887047D0
:1020A00080887047807A00F07F007047807AC0098E
:1020B000704781807047C1807047018170474181BE
:1020C00070477047704770477047704710B4C488B6
:1020D0000368121B84885B6D091B12B25DF8044B08
:1020E00009B21847806A704790F8252012B103683A
:1020F0005B6918477047704710B5082104461BF00C
:102100004BFA204610BD7047704700F59873086879
:10211000496803C370477047704741607047704714
:1021200070470000064BC0F84C310023C0F8503116
:1021300000F5A273C0F84801C0F84031704700BFF5
:10214000BD2200080123037270477047704710B426
:10215000C26841685410034601EB6200D20748BFD1
:102160000A599B685DF8044B48BFD358184703468B
:10217000406830B19A681AB9D86800F00100704719
:102180000120704710B50C2104461BF005FA2046CB
:1021900010BD10B5102104461BF0FEF9204610BDFD
:1021A00010B54FF4AE7104461BF0F6F9204610BD91
:1021B00010B5402104461BF0EFF9204610BD10B5C4
:1021C0000AF0D2FC0368BDE81040DB6B1847000042
:1021D000054B1B7801462BB1406818B103680C31E0
:1021E0005B6E1847704700BF87320120037A70B5D5
:1021F0000546BBB940680368DB69984704463CB9AB
:102200006868036805F10C011B6EBDE87040184753
:10221000A1886B8FC91A236820461B6B09B29847A7
:10222000A469ECE770BD10B50446D0F8400158B180
:102230000368DB68984738B1D4F8400103689B68AD
:1022400098470023C4F8403110BD70B5044690F89B
:10225000390094F838300130C0B2984284F839001F
:1022600005D901232372002384F8393070BDB4F9F5
:102270003A2000210CF092F9C30706D500284FF64A
:10228000FF73C8BF0123184400B2238AC01AA08775
:1022900060680368DB69984705462DB96068036884
:1022A000BDE870405B691847A988A38F19442B6863
:1022B00028461B6B09B29847AD69EEE72DE9F14F4F
:1022C000D0E9556A0746B06803681B6A9847EF284B
:1022D00005D8444B444AA32144481BF08BF970684D
:1022E00003681B6A98470F2803D8414B3E4AA42134
:1022F000F2E7F06803681B6A98470B2803D83D4B48
:10230000394AA521E8E70AF02FFCDFF8F090043005
:102310000AF068FCD9F8000010B10368DB68984740
:10232000D9F8000010B103681B689847DFF8D08027
:10233000D8F8000010B103685B699847D7F83C01F2
:1023400010B103685B689847D8F8000010B10368C3
:102350001B689847D7F83C0110B103689B68984701
:10236000F068036800215B6A98474FF0000B224B2E
:10237000C0F804B0044680F808B00360B068036891
:1023800059465B6A9847054601F0A4FB70680368EC
:1023900059465B6A98472946064601F07BFB331D88
:1023A000C7F83C61C9F80040C8F80050CAF80030CE
:1023B0002B68C6F808A02846DB68EE6398473368A8
:1023C00030461B689847214628460CF0E1F8236800
:1023D00020461B69984723685B69204601B0BDE829
:1023E000F04F184798EA010826EB0108FEEB0108B8
:1023F00045EC0108E8EC010888F70108C832012023
:10240000C4320120044B1B6893F858200AB1D86CE1
:1024100000B99868704700BF88320120F8B50446BB
:1024200017460E460AF0ACFC104B1C60104B2360A4
:10243000104B0025C4E951350F4BC4E953551868BA
:10244000036801219B68C4E94F55C4E95576984754
:10245000284600F047FFFFF7D5FF13F02CFDFFF7EC
:10246000D1FF13F0A3FD2046F8BD00BFD4320120F8
:1024700034F701081CF7010888320120064BC0F828
:102480004C310023C0F8503100F5A273C0F8480168
:10249000C0F84031704700BFBD220008064BC0F8AD
:1024A0004C310023C0F8503100F5A273C0F8480148
:1024B000C0F84031704700BF8D260008064BC0F8B9
:1024C0004C310023C0F8503100F5A273C0F8480128
:1024D000C0F84031704700BF512500082DE9F04198
:1024E00005460026164B4660067245F80C3B04462E
:1024F00028460F4608F060F9124B84F838701B78B4
:1025000084F83960A68723B9012323722046BDE8E9
:10251000F0810D4B0D4FB3F90080E368B7F900105F
:102520009B6B266128469847E3684146DB6B28464B
:102530009847284608F0BBF83B885B426387E5E78D
:10254000ACF70108873201207E3201207C32012065
:102550002DE9F047D0E9556A0746B06803681B6A61
:10256000984740F68723984205D8414B414AA3211A
:1025700041481BF03FF8706803681B6A98470F28B2
:1025800003D83E4B3B4AA421F2E7F06803681B6A7C
:1025900098473F2803D83A4B364AA521E8E70AF086
:1025A000E3FADFF8E09004300AF01CFBD9F80000F1
:1025B00010B10368DB689847D9F8000010B10368D0
:1025C0001B689847DFF8C080D8F8000010B1036896
:1025D0005B699847D7F83C0110B103685B6898477E
:1025E000D8F8000010B103681B689847D7F83C0181
:1025F00010B103689B689847F068036800215B6A24
:10260000984714210446FFF769FFB068036800216A
:102610005B6A9847054600F035FF70680368002143
:102620005B6A98472946064600F0EAFE331DC7F864
:102630003C61C9F80040C8F80050CAF800302B6867
:10264000C6F808A02846DB68EE6398473368304632
:102650001B689847214628460BF09AFF23682046BE
:102660001B699847236820465B69BDE8F047184717
:1026700098EA01088BED0108FEEB010845EC010822
:10268000E8EC0108C8320120C43201202DE9F047EE
:10269000D0E9556A0746B06803681B6A9847EF2877
:1026A00005D8414B414AA32141481AF0A3FF706865
:1026B00003681B6A98470F2803D83E4B3B4AA42166
:1026C000F2E7F06803681B6A98473F2803D83A4B43
:1026D000364AA521E8E70AF047FADFF8E09004302F
:1026E0000AF080FAD9F8000010B10368DB68984757
:1026F000D9F8000010B103681B689847DFF8C08064
:10270000D8F8000010B103685B699847D7F83C011E
:1027100010B103685B689847D8F8000010B10368EF
:102720001B689847D7F83C0110B103689B6898472D
:10273000F068036800215B6A984714210446FFF79C
:10274000CDFEB068036800215B6A9847054601F03A
:10275000C1F97068036800215B6A984729460646FC
:1027600001F098F9331DC7F83C61C9F80040C8F87A
:102770000050CAF800302B68C6F808A02846DB686D
:10278000EE639847336830461B68984721462846D1
:102790000BF0FEFE236820461B69984723682046FD
:1027A0005B69BDE8F047184798EA010876EE010832
:1027B000FEEB010845EC0108E8EC0108C8320120F5
:1027C000C4320120002070474FF6FF7383814FF021
:1027D000FF3303621368C36110607047704770472E
:1027E00070477047704730B5036885B06D4601810A
:1027F000D3F88430014604462846984795E80700F8
:102800003C3484E8070005B030BD30B5036885B0BE
:102810006D464181D3F884300146044628469847E6
:1028200095E807003C3484E8070005B030BD00227D
:10283000028042808280C280704780F836107047E4
:1028400070B5036804461B6B1546984723682946F4
:1028500020465B6EBDE87040184700207047806CD2
:102860007047704770477047704730B4C26844681B
:102870005510034604EB6200D20748BF62599B68BB
:1028800030BC48BFD35818470346406830B19A68F7
:102890001AB9D86800F0010070470120704710B5E0
:1028A0004C2104461AF078FE204610BD10B51021C8
:1028B00004461AF071FE204610BD10B54FF40F719A
:1028C00004461AF069FE204610BD08B5FFF70CFC5F
:1028D00008BD90F825201AB190F8242002B11860A4
:1028E00070470000036870B55E6B124B1B680446AE
:1028F0008DB22BB9104B114A6C2111481AF07AFE97
:102900001049828D0988914203D80F4B0B4A6D21E3
:10291000F3E713F812200D4B1B6853F822000368ED
:102920001B6B9847291A3346204609B2BDE8704010
:10293000184700BFD832012061EF0108A3EF01085A
:10294000DEEF0108DC32012025F00108E032012031
:1029500000F5E270884208B505D10AF005F9BDE836
:102960000840FFF79BBD08BD00224FF0FF31C0E9D2
:1029700000218260704770B5036804461B6B1546E2
:1029800098472368294620465B6BBDE8704018478E
:1029900070B504461D46BDF91060FFF7ECFF2368D3
:1029A000294620469B6B9847236831462046DB6BBF
:1029B000BDE87040184700000022C0E90122C0E9CC
:1029C0000322C0E90522C0E907224FF48072828405
:1029D000014A0260704700BFD0F7010838B52622CF
:1029E00004460D4600211BF00CF82046FFF7E4FFDB
:1029F000064B23602B88E384FF23204684F828308D
:102A0000294608F07CFA204638BD00BF0C040208B5
:102A100010B52622044600211AF0F3FF2046FFF7E6
:102A2000CBFF0A4BA3624FF6FF73A3854FF47F02DF
:102A30000023C4E90C32064A226023874FF0FF329C
:102A4000C4E91023E363A364204610BD0CF701081A
:102A500038F80108F8B5194B018F1B888B420646E0
:102A60002AD9174B1B682BB9164B174A17486C21EC
:102A70001AF0C0FD13F81120154B1B6853F82250B3
:102A8000144B186800F06AFC2B6807469B6B2846BD
:102A900098472B6804469B6C3946284698472B6814
:102AA00014FB00F45B6A394628469847A4B2231801
:102AB0001BB2A6F84630F8BD0023FAE7DC3201204D
:102AC000D832012061EF0108A3EF0108DEEF010811
:102AD000E0320120E43201202DE9F04F044691B0AC
:102AE000A04600250BF0A8FBA24BE56348F8403B4D
:102AF0002622294640461AF084FF4046FFF75CFF35
:102B00009D4B2364FF2384F8663004F16C034FF679
:102B1000FF760EA91846A5660693ADF83860FFF754
:102B20005DFF04F1980304F1C40918460EA9079348
:102B3000ADF83860FFF752FF0EA94846ADF838608F
:102B4000FFF74CFF04F1F00318460393FFF760FF13
:102B500004F59E730EA918460493ADF83860FFF78C
:102B60003DFF864BC4F83C31012704F5BC734FF0A0
:102B7000FF3B1846C4E95BB7C4F8685184F8745148
:102B800004F5E27A0593FFF743FF504608F0EEFAAA
:102B90007B4BC4E98B347B4BC4E98D354FF4A07378
:102BA0002A46404600932946F023FFF7F1FE261DF2
:102BB0004FF07F43A3664146304606F0F9FB3A46A4
:102BC00006988621FFF7D7FE4FF00C080698ADF85F
:102BD00038800EA908F093F90699304606F0E8FB14
:102BE0003A460798CC21FFF7C6FE0798ADF8388023
:102BF0000EA908F084F90799304606F0D9FB3A4649
:102C00004846A921FFF7B7FE48460EA9ADF838801F
:102C100008F075F94946304606F0CAFB1D23042228
:102C20000398009308216023FFF7B2FED4F8F03038
:102C30000399D3F88430C4F820B10DF12008404640
:102C4000A4F82451984798E8070004F5967383E8A0
:102C500007004D4B1B6804F503792BB94B4B4C4ACD
:102C600060214C481AF0C6FC4B4B1B88022B03D842
:102C70004A4B474A6121F4E7494B0221186800F0AA
:102C80006DFB484A0346052148460CF073FF0323B9
:102C90000398C4F838910EA9DFF80C91ADF83C30D8
:102CA000CDF8389007F09CFF0399304606F080FB82
:102CB00004983A46D021FFF75EFE092204980821C5
:102CC00007F068FE0498394607F077FE049984F807
:102CD0006451304606F06CFB222305980093722263
:102CE0002946F023FFF754FED4F878310599D3F83C
:102CF0008430C4F8A8B14046A4F8AC51984798E88D
:102D0000070004F5DA7383E8070004F21623C4F819
:102D1000C0310598A4F816520EA9CDF83890ADF838
:102D20003C7007F05DFF0599304606F041FB5046C8
:102D3000A0222621FFF71FFE02230EAA0DA950464E
:102D4000ADF83830ADF8347007F0A7FF5046A4F85E
:102D5000FC51FFF77FFE04F50B733046C4E980BBDE
:102D6000C4F8EC31514606F023FB204611B0BDE813
:102D7000F08F00BFE0F80108A4030208280302084E
:102D8000C8F8010851290008D832012061EF010874
:102D900063F00108DEEF0108DC32012025F00108B4
:102DA000E4320120AEF001080CF70108406A7047D8
:102DB000806A704770478B88C0690A68DB0A50F8E0
:102DC00023001044704710B50446BAB1107B68B1B7
:102DD000537BD27A1B0203F4E0631A43236A03EBAA
:102DE00082031A888A4202D193F9020010BD05D8E5
:102DF000013880B204330028F3D1F7E70020F5E76B
:102E000010B52C2104461AF0C7FB204610BD000067
:102E100030B58BB00446BDF860500895BDF85C50E5
:102E200007959DF8505006959DF84C5005959DF8D6
:102E3000485004959DF8445003959DF840500295E4
:102E40009DF83C500195BDF8385000950AF0FAFF06
:102E5000064B2360159BE361169B2362199B6362FB
:102E60001A9BA36220460BB030BD00BF14F90108C5
:102E700070477047704730B4C268446855100346C5
:102E800004EB6200D20748BF62599B6830BC48BF60
:102E9000D35818470346406830B19A681AB9D868C1
:102EA00000F0010070470120704710B51021044662
:102EB0001AF072FB204610BD10B5F02104461AF03E
:102EC0006BFB204610BD9830884208B505D109F04B
:102ED0004BFEBDE80840FFF7F1BA08BD2DE9F3410C
:102EE00004460BF0A9F9444B2360444B0025C4E988
:102EF00010354FF48072FF2304F16C07A4F86420AE
:102F000084F86630A4F890204FF6FF733C4AE266DE
:102F100004F19806A4F8923084F8943001A9C4E929
:102F20001255C4E91455C4E91655C4E91C55C4E941
:102F30001E55C4E92055C4E92255E5632566A566FA
:102F40003846ADF8043007F0DAFF304608F00EF9E5
:102F50002C4BC4E938342C4B04F14008C4E93A3511
:102F60002A4629464046FFF706FD4046F021FFF776
:102F7000A4F840464FF4A071FFF7A1F8251D4FF0CB
:102F80007F43A3664146284606F012FA1B223846C4
:102F90001421FFF7F0FC102301A93846ADF80430E6
:102FA00007F0ADFF3946284606F002FA3046A02267
:102FB0002321FFF7E0FC012301AA6946ADF80030A8
:102FC00030460223ADF8043007F067FE0423A4F86E
:102FD000D0303046FFF73EFD4FF0FF33C4E93533C4
:102FE00004F1E0032846C4F8C030314606F0E0F9A9
:102FF000204602B0BDE8F0818CF90108A403020864
:103000000C04020874F90108C72E0008704700007C
:1030100030B5174D2C6814F001048FB0BFF35B8FEF
:1030200022D128461AF0BAFAF0B1124B12491348CD
:103030000A94CDE90B433F230993114B0893114B9D
:103040000594CDE9064301220423CDE90332182378
:1030500000931722CDE90144FFF7DAFE0A481AF07F
:10306000E7FA28461AF0A6FA04480FB030BD00BFB0
:103070004C1F0020B8F90108E8120208501F002078
:103080005C140208B81402080D30000870470000F4
:1030900030B5164D2C6814F001048FB0BFF35B8F70
:1030A00021D128461AF07AFAE8B1114B1149124899
:1030B0000A94CDE90B433F230993104B0893104B1F
:1030C00005940122CDE906430423CDE903321423FC
:1030D0000093CDE90144FFF79BFE0A481AF0A8FAD5
:1030E00028461AF067FA04480FB030BD7C1F002054
:1030F000D4FB01082C140208801F0020AC14020825
:10310000BC1402088D3000087047000030B5164D21
:103110002C6814F001048FB0BFF35B8F20D12846D8
:103120001AF03CFAE0B13F230993104B0893104B7F
:10313000104911480A940122CDE906430423CDE940
:1031400003320A230093CDE90B44CDE901440594F1
:10315000FFF75EFE09481AF06BFA28461AF02AFAC1
:1031600005480FB030BD00BFAC1F0020B0140208EE
:10317000C01402083C140208B01F002009310008E6
:103180007047000030B5164D2C6814F001048FB064
:10319000BFF35B8F20D128461AF000FAE0B13F233D
:1031A0000993104B0893104B104911480A940122BF
:1031B000CDE906430423CDE9033228230093CDE96A
:1031C0000B44CDE901440594FFF722FE09481AF0AB
:1031D0002FFA28461AF0EEF905480FB030BD00BFAF
:1031E000DC1F0020B4140208C41402084C140208A6
:1031F000E01F002081310008002070470020704748
:103200000EB403B503AB002153F8042B01930AF06D
:1032100041FC02B05DF804EB03B070470CB407B595
:1032200004AB53F8042B01930AF034FC03B05DF8AF
:1032300004EB02B070470000436C10B5044673B352
:10324000038F2BB9184B194AC52119481AF0D2F926
:10325000C38E00EB43035B8C0BB30BF0E2FE238FBA
:10326000012B03D8134B144ACB21EEE7E28E531CFB
:103270009BB2092B194688BFA3F10A0104EB410157
:1032800040F63F10498C814209D10A2B04EB4202DF
:1032900028BF002304EB4303508C588451842046FC
:1032A000BDE810400BF0C0BDB1F00108BAF0010854
:1032B00065F10108AFF10108BDF101080BF07BBD1C
:1032C00010B586B002AC84E806001A460AAB059336
:1032D0000193099B00932146089B08F0E3FF06B089
:1032E00010BD000038B518BB124B13481C681349B9
:1032F000B4B1226822440260626822440A60A26873
:1033000014440F4B00221A8000F038F8054600F0F4
:1033100033F80C4B1C600C4B1D600C4B188007E005
:103320000B4B03600B4B0B600B4B1C68002CE8D164
:1033300038BD00BF18200020102000200C200020E5
:1033400014200020D8320120E0320120DC3201209C
:10335000DC140208C814020810150208044B1B688C
:1033600053F82100034B1B6803EB4000704700BF7C
:103370000C200020102000200520704700487047D6
:103380001C20002010B5FFF783FE064C2060FFF7DD
:10339000F9FE6060FFF7BAFEA060FFF739FEE0605B
:1033A00010BD00BF1C200020704710B54FF4AE7157
:1033B00004461AF0F1F8204610BD10B50446D0F8C6
:1033C000580100F096FB2046BDE8104009F068BCAB
:1033D00010B50446FFF722F8014B2360204610BDCC
:1033E00034000208704704387047704710B5102148
:1033F00004461AF0D1F8204610BDA0F10400F5E70C
:1034000000228260024A026018324260C160704746
:103410008800020870470000134B70B50446036033
:1034200040F65C2540F6A406B54217D140F2EC66A2
:10343000635960191B682C3D9847B542F8D140F29A
:10344000DC65635960191B683C3D9847B5F50B7FF7
:10345000F7D12046FFF707FA204670BD635960197F
:103460001B6898472C3DDFE7B000020810B5044602
:10347000FFF7D2FF204640F688211AF08DF820464B
:1034800010BD00002DE9F04F05468DB0FFF724FB7D
:1034900005F50F79654B2B604FF6FF786946484676
:1034A000ADF80080FFF79AFA05F51A77DFF884B1D6
:1034B00005F5E36A3C46002620466946ADF80080E3
:1034C000FFF78CFA0123C4F800B0E662A4F830805C
:1034D000A4F8328084F8343084F8356084F836609B
:1034E00084F8376084F838603C345445E4D105F5FD
:1034F0000D6A26464FF6FF78304669462C36ADF801
:103500000080FFF76BFA5645F6D1564605F6882837
:103510004FF6FF7B304669462C36ADF800B0FFF71A
:103520005DFA4645F6D1424E684600F0D9FBBDF83B
:103530000430B380BDF91C30039AB383089BF2605A
:103540003362049A099B32617362059A0A9B726125
:1035500005F10408069AB3626846BDF82C30B261E2
:10356000B38500F0CFFB404605F5E27105F061FF41
:10357000404605F5BC7105F05CFF0E2369464846E0
:10358000ADF8003007F0BBFCB6F90E20B6F90C1010
:103590004846FFF7F0F94046494605F009FF4FF06D
:1035A000040804F5DC762122304640F24111FFF791
:1035B000E2F9D4F8B83130461B6EADF800806946A8
:1035C00098472046212240F24111FFF7D4F92368A1
:1035D00000261B6EADF80060204669462C349847E3
:1035E0005445DED134460326B4FBF6F303EB430324
:1035F000E31A012B13D0022B14D0072206213846E0
:1036000007F0C8F901343846142107F0D6F9142C14
:1036100007F13C07E8D128460DB0BDE8F08F09223C
:103620000821ECE70B220A21E9E700BFB0000208FD
:10363000F024002028030208C54B1B782DE9F74F22
:10364000C44E044643B3C44B1B782BB3DFF830831E
:1036500098F8003003BB00F5E275071D294638468F
:1036600005F0A6FE04F5BC79B388BC4A0A2104F231
:1036700016200CF07FFA4946384605F099FE284698
:103680000AF032FB48460AF02FFB012388F800308D
:10369000B34B186803F020FDB24FDFF8E8823868BA
:1036A0004FF000098DF8039003F07EFE04F50F75CE
:1036B000E0B14FF0FF3338684A460DF1030103F0E3
:1036C00043FE9DF80330522B40F0FC80B6F92810E1
:1036D000A54800F097FB0F23284601A9ADF8043058
:1036E00007F00DFCD8F8000003F060FED8F80000E9
:1036F00003F05AFEE8B14FF0FF33D8F80000002283
:103700000DF1030103F020FE9DF803304C2B40F037
:10371000E880B16A9448494209B200F073FB0D2376
:10372000284601A9ADF8043007F0E9FB386803F03A
:103730003DFE8E4FDFF85082386803F035FEA8B1A9
:103740004FF0FF33386800220DF1030103F0FCFD58
:103750009DF80330552B40F0D3808348B6F92810EC
:1037600000F052FBD8F8000003F020FED8F800006B
:1037700003F01AFEB0B14FF0FF33D8F8000000227A
:103780000DF1030103F0E0FD9DF80330442B40F000
:10379000BF80B16A7448494209B200F035FB38680D
:1037A00003F004FE2846B6F90E20B6F90C10704F4F
:1037B000FEF78CFC04F5E365A04604F50D6A04F100
:1037C0000409B7F91030022B00F0AA80042B00F096
:1037D000B880012B07D12B68B7F906209B6DB7F98C
:1037E0000410284698472C35554507F11C07E8D1A9
:1037F000604F04F6882A04F10409B7F91030022B4F
:1038000000F0C480042B00F0D280012B07D12B687C
:10381000B7F906209B6DB7F90410284698472C3558
:10382000554507F11C07E8D1534D04F51A7704F507
:10383000966A04F10409B5F91030022B00F0BD803E
:10384000042B00F0D580012B08D1D8F86832B5F9E7
:1038500006209B6DB5F904103846984708F13C08DE
:10386000D04505F1200507F13C07E4D1434AB6F9FC
:103870002C3011788B4204F1040516D0DBB21370A2
:10388000502284F8C02084F8EC2084F89420002B87
:1038900000F0B980FF22012B84F8C02005D0022B54
:1038A00084F8EC2018BF84F89420B3882B4A0521B3
:1038B00004F503700CF05EF928460AF015FA03B01F
:1038C000BDE8F08F4E2B7FF411AF4946264800F03B
:1038D00099FA0E2301A92846ADF8043007F00FFB32
:1038E00004E74E2B7FF425AF1F48002100F08AFA31
:1038F0000E2301A92846ADF8043007F000FB18E7B5
:103900004E2B7FF433AF1848002100F07DFA2DE7ED
:103910004E2B7FF447AF1448002100F075FA41E7C1
:103920002B68B7F906209B6DB7F904102846984715
:103930002946484605F03CFD0121384600F0A6F92D
:1039400051E72946484605F074FD0321F5E700BF1D
:1039500036200020F0240020352000208FF20108BE
:1039600030200020D81C0020F8240020D01C00208B
:10397000D8230020C0220020402000201400002076
:103980002C200020D41C0020CC1C00202B68B7F970
:1039900006209B6DB7F904102846984729464846EB
:1039A00005F006FD0121384600F070F937E7294699
:1039B000484605F03EFD0321F5E7D8F86832B5F931
:1039C00006209B6DB5F9041038469847D8F8683240
:1039D000D3F864B001231A4600213846D847394647
:1039E000484605F0E5FC0121284600F04FF935E78F
:1039F000D8F8683238469B6E98473946484605F0F5
:103A000018FD0321F0E7034B012228461A700AF043
:103A10006BF94AE73520002010B5114C8AB0FEF74B
:103A200023FF206803F058FB2022002102A819F090
:103A3000E8FF0C4B01934FF480421823CDE9062395
:103A4000002101AA084803F003FB084A2060002374
:103A50001370074A1370074A13700AB010BD00BFF5
:103A60003020002092F20108A13F000836200020FB
:103A7000352000202C200020704704387047704704
:103A800010B51021044619F087FD204610BDA0F1A5
:103A90000400F5E700228260024A026018324260A8
:103AA000C1607047E40002087047000010B5034B86
:103AB00003600446FFF7DDF9204610BD0C01020843
:103AC00010B50446FFF7F2FF2046F02119F064FD1F
:103AD000204610BD10B50446FFF700FA014B2360E5
:103AE000204610BD0C010208FFF7C4B90022026095
:103AF0007047704710B5034B0360044600F0B1F8FF
:103B0000204610BD4001020810B50446FFF7F2FF41
:103B100020461C2119F040FD204610BD10B504467A
:103B200000F0AAF8064B23604FF4C873A3614FF06E
:103B300018110023C4E90213024B2361204610BD73
:103B40004001020803009001B0F9083010B5B0F947
:103B500004405B429C420BDBF02C09DCB0F90A30DC
:103B6000B0F906205B429A4202DBB2F5A07F05DD88
:103B70000423038283694382002010BD438A591ABB
:103B800009B200294182F7DC83891C44C3898480FF
:103B90001A448369C28043820120EEE710B5034BCB
:103BA0000360044600F05DF8204610BD5401020891
:103BB00010B50446FFF7F2FF2046202119F0ECFC77
:103BC000204610BD10B5044600F056F8084B23609F
:103BD0004FF4167246F2A813C4E906234FF02011E1
:103BE0000022C4E90212034A2261A382204610BDCA
:103BF0005401020803005802B0F90830B0F904205B
:103C00005B429A4210B508DBF02A06DCB0F90A30B4
:103C1000B0F906405B429C4207DA04230382C36981
:103C2000838283694382002010BD438A591A09B2F6
:103C300000294182F7DC83891A44C38982801C44AD
:103C40008369C48043820120EEE7838A591A09B24E
:103C50000029D8BFC3698182DABF83820120002096
:103C6000704770470020704710B51821044619F0BE
:103C700093FC204610BD0000034A0260032202822A
:103C80004FF020128260704768010208018270477D
:103C90008180C28070478181C2817047B0F9042061
:103CA000B0F9083010B5B1F904401344A34215DD52
:103CB000B1F9083023449A4210DAB0F90630B0F96D
:103CC0000A20B1F906401A44A24207DDB1F90A20E0
:103CD00022449342ACBF0020012010BD0020FCE72D
:103CE00010B5054B0360002304468380083000F0C4
:103CF00033F8204610BD00BF7C01020883881944B8
:103D00008180704710B5044B044640F8083B00F032
:103D10000FF8204610BD00BF7C01020810B5044614
:103D2000FFF7F0FF2046302119F036FC204610BD89
:103D300010B5034B03600446FFF793FF204610BD08
:103D40008C01020810B50446FFF7F2FF2046282137
:103D500019F022FC204610BD10B50446FFF78CFF79
:103D600003210A480A4B2162A1844FF01C11C4E9C7
:103D7000010142F21072236000214FF4C873C4E9BC
:103D80000632E160A2826382204610BD6800040111
:103D90008C010208438A591A09B2002941821FDCAA
:103DA00082888389C1891A44C38812B20B441BB22A
:103DB00081698280002AC380418207DA00228280E2
:103DC000002B07DA0023C38001207047D02AF7DDDB
:103DD000D022F4E7B3F5907FF6DD4FF49073F2E76D
:103DE00000207047838A591A09B20029D8BFC369D5
:103DF0008182DABF8382012000207047838C1944BE
:103E00008184704781817047C18170472DE9F047F7
:103E1000DFF890A0224CDAF80030DFF88C80DFF871
:103E20008C901B1A0546CAF800301426B4F91030DD
:103E3000032B09D029462046FFF7DEFE013E04F1A0
:103E40002004F3D1BDE8F087DAF80030002BF5DC70
:103E5000D8F8003003F00102002A4FF6E0714FF667
:103E6000FF770CBFF0210127032B94BF19F8032023
:103E70000022022BD4BF013300232046C8F80030B3
:103E8000FFF706FF002239462046FFF704FF022114
:103E90002046FFF7FBFE42F21073CAF80030CDE770
:103EA00040200020180000203C200020980102083B
:103EB0002DE9F843014606461348144CDFF85080BC
:103EC000DFF85090FFF78EFF04F58C770546B4F9C4
:103ED0001030032B08D031462046FFF735FE1C3446
:103EE000BC42F4D1BDE8F88365B1B8F80020B9F858
:103EF0000010103A204692B2FFF7CAFE0221204677
:103F0000FFF7C4FE0025EAE7F8240020D8230020AC
:103F1000382000203A2000202DE9F0411E4C0546B3
:103F200000274FF01C08B4F91030012B10D129469E
:103F30002046FFF78AFE58B1184A00231646B2F908
:103F40001010032919D001330A2B02F11C02F6D1FB
:103F50000137142F04F12004E5D1104C0A26B4F9DE
:103F60001030012B03D129462046FFF7EDFD013E1D
:103F700004F11C04F3D1BDE8F081E288A18808FBBC
:103F800003661032304692B2FFF782FE02213046BD
:103F9000FFF77CFEDCE700BF40200020C0220020AD
:103FA0002DE9F74FDFF8D8B100246E4B4FF6CE72F3
:103FB000E61811463046FFF76BFE04EB0B054FF693
:103FC000CE7211462846FFF763FE4FF6FB720021C2
:103FD0003046FFF760FE052200212846FFF75BFE12
:103FE00003213046FFF752FE1C3403212846FFF719
:103FF0004DFEB4F58C7FD8D1DFF88881002544468A
:104000004FF6CE7211462046FFF742FE013520469C
:104010000321FFF73BFE142D04F12004F0D1524F91
:104020000026524B1B780136002B40F09880022E60
:104030004F4C14BF18461E464E4BA2891A804E4B59
:10404000E2891A8008BF01203870FFF7DFFE397857
:1040500004F10800FFF79EFE3878FFF729FF387853
:10406000FFF75AFF45464FF0000904F1080AB5F979
:104070001030012B60D151462846FFF70FFE002873
:104080005AD03E484FF0FF31FFF7B8FE04212846D2
:10409000FFF7FCFD39484FF482726821FFF7F8FD05
:1040A00045464FF01409B5F91030012B1AD1DFF84D
:1040B000B4A00A22BAF91010012945D15146284668
:1040C0000192FFF7EBFD019A00283DD0042128461C
:1040D000FFF7DCFD04215046FFF7D8FD24480521F9
:1040E000FFF70CFEB9F1010905F12005DBD12349E9
:1040F0005D464FF00A09B5F91030012B29D1284649
:10410000FFF7CCFD1D4920B31C484FF0FF31FFF7EE
:1041100075FE04212846FFF7B9FD18484FF4827256
:104120006821FFF7B5FDB4F92C30002B3FF779AFCC
:104130000E4A0123137074E709F10109B9F1140F54
:1041400005F1200593D1ABE7013A0AF11C0AB1D180
:10415000C8E7B9F1010905F11C05CCD1E3E703B0CB
:10416000BDE8F08FD8230020342000203620002026
:10417000F02400203A20002038200020F8240020DD
:10418000C02200204020002038B50F480F4DFFF717
:10419000A7FD002428191C34FFF7C0FCB4F58C7F60
:1041A000F8D10B4D002428191C34FFF7B7FCB4F5E7
:1041B0008C7FF8D1074D002428192034FFF702FD29
:1041C000B4F5207FF8D138BDF0240020D82300209A
:1041D000C022002040200020164838B51524013C9C
:1041E000A0F1200512D114480B24013CA0F11C05BC
:1041F00014D112480B24013CA0F11C0515D0D0F8B5
:10420000FC30FC305B6898472846F4E7D5F88032EC
:1042100000F518705B6898472846E0E7D5F8183134
:10422000FC305B6898472846DFE7BDE83840044823
:10423000FFF768BD40200020C0220020D8230020C6
:10424000F0240020F02070474FF4A0707047292020
:10425000FDF7B0BB2820FDF7ADBB08B5FDF77EFB31
:10426000CA20FDF7A7FBC320FDF788FB0820FDF758
:1042700085FB5020FDF782FBCF20FDF79BFB002044
:10428000FDF77CFBC120FDF779FB3020FDF776FBC5
:10429000ED20FDF78FFB6420FDF770FB0320FDF799
:1042A0006DFB1220FDF76AFB8120FDF767FBE8201C
:1042B000FDF780FB8520FDF761FB0020FDF75EFB2D
:1042C0007820FDF75BFBCB20FDF774FB3920FDF771
:1042D00055FB2C20FDF752FB0020FDF74FFB34204F
:1042E000FDF74CFB0220FDF749FBF720FDF762FBD1
:1042F0002020FDF743FBEA20FDF75CFB0020FDF7E3
:104300003DFB0020FDF73AFBB120FDF753FB0020F9
:10431000FDF734FB1B20FDF731FBB620FDF74AFB10
:104320000A20FDF72BFBA220FDF728FBC020FDF79C
:1043300041FB1020FDF722FBC120FDF73BFB1020C5
:10434000FDF71CFBC520FDF735FB4520FDF716FBEF
:104350001520FDF713FBC720FDF72CFB9020FDF780
:104360000DFB3620FDF726FBC820FDF707FBF220EA
:10437000FDF720FB0020FDF701FBB020FDF71AFB45
:10438000C220FDF7FBFAB620FDF714FB0A20FDF76B
:10439000F5FAA720FDF7F2FA2720FDF7EFFA04203F
:1043A000FDF7ECFA2A20FDF705FB0020FDF7E6FA01
:1043B0000020FDF7E3FA0020FDF7E0FAEF20FDF71B
:1043C000DDFA2B20FDF7F6FA0020FDF7D7FA0020E2
:1043D000FDF7D4FA0120FDF7D1FA3F20FDF7CEFA20
:1043E000F620FDF7E7FA0120FDF7C8FA0020FDF7F7
:1043F000C5FA0620FDF7C2FA2C20FDF7DBFAC8202B
:10440000FDF726FB2620FDF7D5FA0120FDF7B6FAC9
:10441000E020FDF7CFFA0F20FDF7B0FA2920FDF7D5
:10442000ADFA2420FDF7AAFA0C20FDF7A7FA0E201A
:10443000FDF7A4FA0920FDF7A1FA4E20FDF79EFA38
:104440007820FDF79BFA3C20FDF798FA0920FDF74C
:1044500095FA1320FDF792FA0520FDF78FFA172041
:10446000FDF78CFA1120FDF789FA0020FDF786FA96
:10447000E120FDF79FFA0020FDF780FA1620FDF7F6
:104480007DFA1B20FDF77AFA0420FDF777FA112058
:10449000FDF774FA0720FDF771FA3120FDF76EFA87
:1044A0003320FDF76BFA4220FDF768FA0520FDF78F
:1044B00065FA0C20FDF762FA0A20FDF75FFA282062
:1044C000FDF75CFA2F20FDF759FA0F20FDF756FA99
:1044D0001120FDF76FFAC820FDF7BAFA2920FDF781
:1044E00069FABDE808402C20FDF764BA08B5FDF76D
:1044F00035FA0321D320FDF779FA80B208BD10B553
:10450000C4B2022203212046FDF7DEF90A20FDF79E
:1045100023FA204600220321FDF7D6F9BDE810401A
:104520000220FDF719BA38B50446E4B2FDF7CAF91E
:1045300000212046FDF7E0F9012105462046FDF760
:10454000DBF940EA052080B238BD10B5C4B2402185
:104550002046FDF7D1F9030607D54C212046FDF78B
:10456000CBF9003818BF012010BD01224B21204695
:10457000FDF7AAF9204600224B21FDF7A5F90020FE
:10458000F2E773B50423C4B20E461546D7210DEBEE
:1045900003022046FDF7CAF9019B1BBA1A0DC3F3AB
:1045A0000B23328020462B8001224B21FDF78CF912
:1045B00000224B212046FDF787F902B070BD0000B4
:1045C00010B50A4A1378984204460DD051788842B3
:1045D0000AD00BB141B90123D454FDF773F9204639
:1045E000BDE81040FFF78BBF10BD00BF20250020A5
:1045F00010B5C4B209212046FDF77EF940F0010252
:10460000D2B220460921BDE81040FDF75DB910B5D2
:10461000C4B209212046FDF76FF9092100F0FE021E
:104620002046BDE81040FDF74FB938B5C4B20D467D
:1046300020460A21FDF760F940EA0502D2B2204681
:104640000A21BDE83840FDF73FB910B50446FDF733
:104650003AF920461F21FFF7E8FF2046BDE8104049
:10466000FFF7C6BF38B5C4B20D4620460A21FDF794
:1046700043F920EA0502D2B220460A21BDE83840BB
:10468000FDF722B910B50446FFF7C1FF20461F21F0
:10469000BDE81040FFF7E6BF10B5C0B20C460B21D5
:1046A000FDF72AF9204010BD1F21FFF7F5BF0A468C
:1046B000C0B20B21FDF708B91F21FFF7F8BF38B5CD
:1046C000C4B20D4620461721FDF716F920EA05026F
:1046D000D2B220461721BDE83840FDF7F5B870B5D5
:1046E000C4B2064604212046FDF706F9042100F075
:1046F000FB0205462046FDF7E7F83046F021FFF7BC
:10470000DEFF05F0F80220460421FDF7DDF849221E
:1047100020212046FDF7D8F80220FDF71DF920469C
:1047200001222121FDF7D0F820469A224121FDF7F0
:10473000CBF8204601224A21FDF7C6F82046012287
:104740004B21FDF7C1F8204600224B21FDF7BCF8B4
:10475000204601225621FDF7B7F8204601225821B4
:10476000FDF7B2F8204601224021FDF7ADF82046C2
:10477000FF220B21FDF7A8F8BDE870400220FDF7ED
:10478000EBB80000054BD3F8882042F47002C3F860
:1047900088204FF000629A60704700BF00ED00E093
:1047A00008B50B4B1A6842F400721A601A6842F49A
:1047B00080621A601A6842F480721A60032000F066
:1047C00063FA0020FDF786FBFDF750F9002008BDD5
:1047D000003C0240034A044B11681B780B441360F1
:1047E000704700BF2425002080000020014B18687E
:1047F000704700BF2425002038B50446FFF7F6FFB8
:10480000631C1CBF054B1B78054618BFE418FFF757
:10481000EDFF431BA342FAD338BD00BF8000002048
:104820007047000038B50446002800F09B80056CF6
:1048300025B9FFF7F5FF656484F83C50236CDB066F
:1048400000F18E80236C23F4885323F0020343F09D
:1048500002032364444B5A6822F440325A605A6877
:1048600061680A435A60236821695A6822F4807299
:104870005A605A6842EA01225A605A68A16822F0D6
:1048800040725A605A680A435A609A68E16822F492
:1048900000629A609A680A439A603449A26A8A421E
:1048A00052D0996821F07061996099680A439A60C2
:1048B0009A68E16A22F040529A609A680A439A60C4
:1048C0009A6822F002029A609A68217E42EA4102C6
:1048D0009A6094F82020002A3ED05A68616A42F417
:1048E00000625A605A6822F460425A605A6801397C
:1048F00042EA41325A60DA6AE16922F47002DA620D
:10490000DA6A013942EA0152DA629A6822F40072E4
:104910009A609A6894F8301042EA41229A609A6844
:10492000616922F480629A609A68002042EA8122DA
:104930009A606064236C23F0030343F00103236453
:10494000002384F83C3038BD9A6822F070629A6087
:104950009A6822F04052B2E75A6822F40062C9E72E
:104960000120EDE70120EEE7002301400100000FE8
:1049700082B00023019390F83C30012B69D00123D1
:1049800080F83C3003689A68D2070BD59A68D10743
:104990001AD4036C43F010030364436C43F0010327
:1049A00043644CE09A682C4942F001029A602B4A19
:1049B0001268B2FBF1F202EB42020192019A002A64
:1049C000E4D0019A013AF8E7026C22F4E06222F0A6
:1049D000010242F4807202645A68520541BF026CBF
:1049E00022F4405242F480520264026C12F480526B
:1049F0001CBF426C22F006024264002280F83C2078
:104A00006FF022021A60164A516811F01F0F154903
:104A10001CD18B4207D001F580718B420CD15268BA
:104A200012F01F0F0BD19A6812F0405F07D19A68FD
:104A300042F080429A6002E00B498B4202D0002093
:104A400002B07047526812F0100FEBE78B42F6D1BC
:104A5000E9E70220F4E700BF40420F007C0000209D
:104A600000230140002001400022014090F83C302A
:104A7000012B14D003689A6822F001029A609B68A7
:104A8000DB0707D4036C23F4885323F0010343F0BE
:104A900001030364002380F83C301846704702206D
:104AA000704703689A68520570B504460D460BD5E9
:104AB0009B68DE0508D5036C43F0200303640023E4
:104AC00080F83C30012070BDFFF790FE0646236859
:104AD0001A6891070CD56FF012021A60226C42F42A
:104AE000007222649A6812F0405F17D00020EAE753
:104AF000681CEDD065B923681B6813F00203E6D18A
:104B0000226C84F83C3042F0040222640320DAE78D
:104B1000FFF76CFE801BA842EDD8D8E7227E002A62
:104B2000E4D1DA6A12F4700F02D09B685A05DDD422
:104B3000236C23F480732364236CDB04D6D4236CAE
:104B400043F001032364D1E70368D86C7047000089
:104B5000F7B50023019390F83C30012B054600F097
:104B60008680012380F83C3008682B688E6809280D
:104B700084B233D904EB4402DF681E3A4FF0070CCD
:104B80000CFA02FC27EA0C07DF60DF6806FA02F283
:104B90003A43DA604968062901EB81022DD8596B46
:104BA000053A1F26964021EA06015963596B04FA1B
:104BB00002F20A435A632F4A93420AD1122837D18C
:104BC0002D4B5A6822F400025A605A6842F480025F
:104BD0005A60002085F83C0003B0F0BD1A6900EB74
:104BE000400C072707FA0CF722EA07021A611A6934
:104BF00006FA0CF616431E61CCE70C294FF01F0194
:104C00000BD81E6B233A914026EA01011963196BF8
:104C100004FA02F20A431A63CDE7DE6A413A914090
:104C200026EA0101D962D96A94400C43DC62C2E7EA
:104C3000124B984201D01128CBD10F4B5A6822F465
:104C400080025A605A6842F400025A600B4B984244
:104C5000BFD10B4B0B4A1B68B3FBF2F30A22534341
:104C60000193019B002BB4D0019B013BF8E702208C
:104C7000B2E700BF002001400023014012000010F5
:104C80007C00002040420F000749CA6822F4E0621D
:104C90000302120403F4E063120C134343F0BF63F6
:104CA00043F40033CB60704700ED00E0164B30B5A5
:104CB000DC68C4F30224C4F10703251D042B28BFBC
:104CC0000423062D4FF0FF358CBF033C002405FA6A
:104CD00003F321EA0303A54022EA0502A3400028CA
:104CE00043EA0203ACBF00F16040084A4FEA0313F5
:104CF000B8BF00F00F00DBB2AABF00F5614013544B
:104D000080F8003330BD00BF00ED00E014ED00E09E
:104D1000002807DB4109044A00F01F0001238340FB
:104D200042F82130704700BF00E100E010B50446B2
:104D300050B1437903F0FF0213B90271FCF7B6FEDC
:104D400001236371002010BD0120FCE710B504466B
:104D500020B390F8393003F0FF021BB980F83820F7
:104D6000FCF7BCFE022384F83930236861681A68B6
:104D700022F440320A431A605A6BA16822F00702FB
:104D80000A435A631A6CE1686FF30D020A431A640E
:104D900000200123E06384F8393010BD0120FCE7D6
:104DA00070477047036870B55E681D68F207044677
:104DB00014D5E90512D51A6822F480721A60C26B04
:104DC00042F00102C26301229A60042380F8393064
:104DD000002380F83830436903B19847B20616D5EE
:104DE000AB0414D523681A6822F400521A602022FA
:104DF0009A60E36B43F00203E363042384F83930E1
:104E0000002384F8383063690BB120469847300797
:104E100016D5290514D523681A6822F400621A6091
:104E200008229A60E36B43F00403E363042384F8ED
:104E30003930002384F8383063690BB12046984735
:104E400072070BD56B0509D523681A6822F48062B6
:104E50001A6004229A602046FFF7A2FFB00714D51B
:104E6000A90512D523681A6822F400721A6002227A
:104E70009A60E36BE363012384F83930002384F8FC
:104E8000383023690BB120469847F20613D5EB045E
:104E900011D523681A6822F480521A6010229A6091
:104EA000E36BE363012384F83930002384F838305E
:104EB0002046FFF776FF70BDF0B590F83820012A44
:104EC00003464FF002002BD0012283F8382083F8EC
:104ED000390003EB0112D2E90740556A174F44EA43
:104EE0000040093C012C9CBF05F07F4210434FEA73
:104EF00001161A6888BF40EA056091B9516A3940C5
:104F000001435162012C9969916103D8596A21F0DA
:104F10007F4191620122002083F8392083F8380014
:104F2000F0BDD16939400143D1619919012C8969DA
:104F300011619CBF25F07F451562EBE7F0FFFC0097
:104F40002DE9F74FDFF8BC916C4A00230D6801246E
:104F50009C4004EA0506AC4340F0B7804D68032747
:104F600005F003044FEA430807FA08FC671E012F07
:104F70006FEA0C0C34D8876807EA0C0ECF6807FA82
:104F800008F747EA0E078760476827EA060EC5F369
:104F900000179F4047EA0E074760C76807EA0C0EF4
:104FA0008F6807FA08F747EA0E07022CC76019D185
:104FB0004FEAD30A00EB8A0A03F0070BDAF82070F5
:104FC0004FEA8B0B4FF00F0E0EFA0BFE27EA0E0E78
:104FD0000F6907FA0BF747EA0E07CAF8207001E0DD
:104FE000032CDAD1076804FA08F407EA0C073C43FB
:104FF00015F4403F046068D000240194D9F844407F
:1050000044F48044C9F84440D9F8444023F00307ED
:1050100007F1804704F4804407F59C37019403F0BE
:10502000030C019CD7F808E04FEA8C0C0F2404FA1B
:105030000CF42EEA040E324CA0424DD004F58064EC
:10504000A0424BD004F58064A04249D004F58064AE
:10505000A04247D004F58064A04245D004F58064A6
:10506000A04243D004F58064A04241D004F580649E
:10507000A0423FD004F58064A0423DD004F5806496
:10508000A04214BF0A24092404FA0CF444EA0E04D2
:10509000BC609468F74315F4801F0CBF3C40344358
:1050A0009460D46815F4001F0CBF3C403443D460B6
:1050B000546815F4003F0CBF3C40344354601468FE
:1050C000ED0354BF3C40344314600133102B7FF494
:1050D0003DAF03B0BDE8F08F0024D5E70124D3E74E
:1050E0000224D1E70324CFE70424CDE70524CBE74E
:1050F0000624C9E70724C7E70824C5E7003C0140A8
:1051000000000240003802400369194214BF012028
:10511000002070470AB1816170470904FBE74369C9
:1051200001EA030221EA030141EA02418161704779
:1051300001684B6913F480634FF0000210D06FF4E4
:1051400080634B612023026380F83D3080F83E206D
:10515000036C80F83C2043F0040303640120704793
:10516000184670472DE9F84606460F4691461D46FB
:105170004FEA114A3368BAF1010F0CBF5C699C69B0
:1051800027EA0404A4B2B4FA84F46409A14501D066
:10519000002017E06A1CEED0FFF728FB089BC01A1E
:1051A000A84201D8002DE5D100232022336386F8E0
:1051B0003D2086F83E30326C86F83C3042F02002CA
:1051C00032640120BDE8F8862DE9F04104460F461F
:1051D000164698462568686927EA000080B2C0B183
:1051E0006B695A0517D52B6843F400732B606FF475
:1051F00080636B6120220023236384F83D2084F8C0
:105200003E30236C43F004032364002384F83C30D5
:105210000120BDE8F081731CDDD0FFF7E7FAA0EBB9
:105220000800B04209D900232022236384F83D20DE
:1052300084F83E30236C1343E6E7002ECAD1F2E730
:1052400070B504460D46164623685B691B0601D5FA
:10525000002018E02046FFF76BFF98B96A1CF3D0D6
:10526000FFF7C4FA801BA8420ED900232022236333
:1052700084F83D2084F83E30226C84F83C3042F0C3
:1052800020022264012070BD002DDDD1EDE7000079
:105290002DE9F0431546026885B0DDE90C789946A2
:1052A000136843F4807313600E463B46CDF80080CC
:1052B00000224FF001110446FFF754FF236838B174
:1052C0001B68DB0502D54FF400732364032620E03E
:1052D00006F0FE061E611A4943463A462046FFF78D
:1052E00073FFA8B9236803905A6903929B690393DB
:1052F000424639462046039BFFF7A2FF064660B1AF
:10530000236C042B01BF2268136843F400731360FD
:105310000126304605B0BDE8F083B9F1010F2368DE
:1053200002D1EDB21D61F4E72A0A1A6139464246FC
:105330002046FFF785FF0028E2D12368F1E700BF90
:10534000020001002DE9FF479A46036815461A68D6
:1053500042F480621A601A68DDE90C7842F48072C7
:105360001A600E463B46CDF8008000224FF0011136
:105370000446FFF7F7FE236838B11B68DB0544BF1E
:105380004FF400732364032021E05FFA86F906F0EE
:10539000FE061E612B4943463A462046FFF714FF9E
:1053A000A0B9236803905A6903929B69039342460C
:1053B00039462046039BFFF743FF58B1236C042B6B
:1053C00001BF2268136843F400731360012004B026
:1053D000BDE8F087BAF1010F23681AD1EDB2424659
:1053E0001D6139462046FFF72BFF02460028E5D114
:1053F00021680B6843F480730B602046CDF8008071
:105400003B464FF00111FFF7ADFE226860B1136813
:10541000B4E72A0A1A61394642462046FFF710FFD0
:105420000028CBD12368D9E749F00103136105496E
:1054300043463A462046FFF7C7FE003818BF012012
:10544000C5E700BF0200010070B504460D461646D0
:1054500023685B695B0701D5002018E02046FFF751
:1054600067FE98B96A1CF3D0FFF7C0F9801BA84209
:105470000ED900232022236384F83D2084F83E3097
:10548000226C84F83C3042F020022264012070BD7E
:10549000002DDDD1EDE770B504460D4616462168B6
:1054A0004B6913F0400301D0002011E04A69D20695
:1054B0000FD56FF010024A612022236384F83D204B
:1054C00084F83E30236C2364002384F83C300120B0
:1054D00070BDFFF78BF9801BA84209D90023202259
:1054E000236384F83D2084F83E30236C1343EAE7BD
:1054F000002DD4D1F2E7000070B5044608B90120B0
:1055000070BD90F83D3003F0FF021BB980F83C20DD
:10551000FCF706FB242384F83D3023681A6822F048
:1055200001021A601A6842F400421A601A6822F4F2
:1055300000421A6000F066FE3F4B65689D4294BFD2
:105540003E4B3F4B98428CBF00230123002BD6D10A
:105550002268394E51683B4BB0FBF3F321F03F0119
:105560001943B542516088BF4FF49676116A88BFDF
:10557000734321F03F0184BF4FF47A76B3FBF6F317
:1055800001330B431362D169431E2B4821F44F4171
:10559000854221F0FF0132D86D0040F6FC70B3FB6C
:1055A000F5F30133034242D0C3F30B031943D16136
:1055B000D4E907301168034321F0C0010B431360A5
:1055C0009168D4E9030321F40341034321F0FF016F
:1055D0000B439360D4E90530D168034321F0FF0108
:1055E0000B43D360136843F00103136000202023B2
:1055F000206484F83D30206384F83E0080E7A06892
:1056000050B905EB4505B3FBF5F30133C3F30B03C9
:105610007BB143F40043C9E719206843B3FBF0F3BF
:105620000133C3F30B0323B143F44043BEE7042328
:10563000BCE70123BAE700BFA08601007F841E00FB
:10564000FF083D0040420F002DE9F743044699460C
:105650000C9E0F469046FFF7C9F894F83D30202B7A
:10566000054603D0022003B0BDE8F08300903C491A
:10567000192301222046FFF775FD0028F2D194F886
:105680003C30012BEED02068012384F83C300368C5
:10569000D9075EBF036843F001030360036823F486
:1056A00000630360212384F83D30402384F83E30BA
:1056B000002323640A9B6362BDF82C306385638DED
:1056C0002385284BE3624246CDE900654B463946C7
:1056D0002046FFF7DDFD00282AD00120C3E7FFF7B1
:1056E000AFFD40B1236C042B01BF2268136843F463
:1056F00000731360F1E7636A27681A4612F8011B0A
:1057000039616262628D218D013A92B262857A6955
:10571000481E80B2520720850AD548B15A783A61AE
:1057200002336362638D013B02399BB2218563853D
:10573000238D2A4631462046002BD0D1FFF784FE28
:105740000028CFD12268136843F40073136020232C
:1057500084F83D3084F83C0084F83E0083E700BFC5
:10576000020010000000FFFF2DE9F043044687B05F
:105770009946109F0D469046FFF738F894F83D3053
:10578000202B064604D00225284607B0BDE8F0834A
:1057900000907649192301222046FFF7E3FC0028F8
:1057A000F1D194F83C30012BEDD02068012384F82E
:1057B0003C300368DB075EBF036843F0010303600E
:1057C000036823F400630360222384F83D30402300
:1057D00084F83E30002323640E9B6362BDF83C30A6
:1057E0006385638D2385624BE3622946CDE90076AC
:1057F0004B4642462046FFF7A5FD054608B1012568
:10580000C2E7228D2368B2B902905A6902929A695E
:105810000292029A1A6842F400721A60DFF8548108
:10582000238D002B2CD1202284F83D2084F83C309D
:1058300084F83E30A8E7012A0AD11A6822F480626F
:105840001A6003905A6903929A690392039AE1E7F6
:10585000022A0ED11A6822F480621A601A6842F491
:1058600000621A6004905A6904929B690493049B35
:10587000D4E705905A6905929B690593059BCDE78E
:10588000032B56D8012B15D1324639462046FFF757
:1058900002FE0028B3D123681A69636A1A70636A2A
:1058A00001336362238D013B2385638D013B9BB2F2
:1058B0006385B5E7022B00963B464FF00002414658
:1058C000204619D1FFF74EFC002898D123681A68AA
:1058D00042F400721A601A69636A1A70626A531C91
:1058E0006362238D013B2385638D013B9BB26385FE
:1058F00023681B695370D2E7FFF734FC0246002887
:105900007FF47DAF2368196821F4806119601969FB
:10591000636A1970636A01336362238D013B2385D7
:10592000638D013B9BB26385414600963B46204612
:10593000C8E7324639462046FFF7ADFD00287FF420
:105940005EAF23681A69636A1A70626A531C6362E5
:10595000238D013B2385638D013B9BB263852368C7
:10596000596949077FF55CAFC3E700BF020010002B
:105970000000FFFF0400010010B590F83D30202B1F
:10598000DCB216D1242380F83D3003681A6822F077
:1059900001021A605A6A22F010025A625A6A1143CE
:1059A00059621A6842F001021A6080F83D400020F6
:1059B00010BD0220FCE730B590F83D30202BDCB262
:1059C00016D10268242380F83D30136823F00103C8
:1059D0001360556A4FF6F0732B400B439BB2536232
:1059E000136843F00103136080F83D40002030BD90
:1059F0000220FCE70068D1F800C0D201843283188D
:105A00002DE9F043C6685D684C68D1F8189005F43C
:105A100070455D60C5680CF10107C5F30B45C6F321
:105A20000B4626443D4445EA06455D60C668CD68A0
:105A3000C6F30A062E449D6805F470459D60C7684C
:105A40008D68C7F30A0701353D4445EA06459D6068
:105A50001D690E6925F007051D614FF0000E1E61DE
:105A600091F832709D6991F83180C3F818E091F88F
:105A7000305045EA096545EA082545EA07459D6134
:105A80005D6925F0FF055D614D695D61DD6925F4A6
:105A9000E06525F00705DD61D1E907573D43DD618C
:105AA0009D6A4D6AC3F828E0072E9D629CBF0E4D8B
:105AB000AE5DDD6A05F0E025DD6288BF01268D6AF6
:105AC000C96AA4EB0C0474437543033444EA0544E7
:105AD000DC621C6B6FF30A041C631963835843F088
